:1000000070C50120259701004FC50600F996010033
:10001000F9960100F9960100F9960100F9960100A0
:100020000000000000000000000000005D8F0100E3
:10003000F996010000000000018F0100F99601000F
:10004000E18F0100E18F0100E18F0100E18F0100EC
:10005000E18F0100E18F0100E18F0100E18F0100DC
:10006000E18F0100E18F0100E18F0100E18F0100CC
:10007000E18F0100E18F0100E18F0100E18F0100BC
:10008000E18F0100E18F0100E18F0100E18F0100AC
:10009000E18F0100E18F0100E18F0100E18F01009C
:1000A000E18F0100E18F0100E18F0100E18F01008C
:1000B000E18F0100E18F0100E18F0100E18F01007C
:1000C000E18F0100E18F0100E18F0100E18F01006C
:1000D000E18F0100E18F0100E18F0100E18F01005C
:1000E000E18F0100E18F0100E18F0100E18F01004C
:1000F000E18F0100E18F0100E18F0100E18F01003C
:10010000E18F0100E18F0100E18F0100E18F01002B
:10011000E18F0100E18F0100E18F0100E18F01001B
:10012000E18F0100E18F0100E18F0100E18F01000B
:10013000E18F0100E18F0100E18F0100E18F0100FB
:10014000E18F0100E18F0100E18F0100E18F0100EB
:04015000E18F01003A
:04015400FFFFFFFFAB
:1001580081F0004102E000BF83F0004330B54FEA70
:1001680041044FEA430594EA050F08BF90EA020FDD
:100178001FBF54EA000C55EA020C7FEA645C7FEA70
:10018800655C00F0E2804FEA5454D4EB5555B8BF93
:100198006D420CDD2C4480EA020281EA030382EA04
:1001A800000083EA010180EA020281EA0303362D96
:1001B80088BF30BD11F0004F4FEA01314FF4801C69
:1001C8004CEA113102D0404261EB410113F0004F7B
:1001D8004FEA03334CEA133302D0524263EB430332
:1001E80094EA050F00F0A780A4F10104D5F1200ED0
:1001F8000DDB02FA0EFC22FA05F2801841F100012B
:1002080003FA0EF2801843FA05F359410EE0A5F1FE
:1002180020050EF1200E012A03FA0EFC28BF4CF02F
:10022800020C43FA05F3C01851EBE37101F00045E5
:1002380007D54FF0000EDCF1000C7EEB00006EEBF2
:100248000101B1F5801F1BD3B1F5001F0CD349087C
:100258005FEA30004FEA3C0C04F101044FEA4452D3
:1002680012F5800F80F09A80BCF1004F08BF5FEA5A
:10027800500C50F1000041EB045141EA050130BD3A
:100288005FEA4C0C404141EB0101013C28BFB1F54C
:10029800801FE9D291F0000F04BF01460020B1FA97
:1002A80081F308BF2033A3F10B03B3F120020CDA6A
:1002B8000C3208DD02F1140CC2F10C0201FA0CF048
:1002C80021FA02F10CE002F11402D8BFC2F1200CAD
:1002D80001FA02F120FA0CFCDCBF41EA0C01904063
:1002E800E41AA2BF01EB0451294330BD6FEA0404AC
:1002F8001F3C1CDA0C340EDC04F11404C4F1200297
:1003080020FA04F001FA02F340EA030021FA04F3A8
:1003180045EA030130BDC4F10C04C4F1200220FAFF
:1003280002F001FA04F340EA0300294630BD21FA3D
:1003380004F0294630BD94F0000F83F4801306BF03
:1003480081F480110134013D4EE77FEA645C18BFF7
:100358007FEA655C29D094EA050F08BF90EA020F8E
:1003680005D054EA000C04BF1946104630BD91EA86
:10037800030F1EBF0021002030BD5FEA545C05D189
:100388004000494128BF41F0004130BD14F58004C8
:100398003CBF01F5801130BD01F0004545F0FE413C
:1003A80041F470014FF0000030BD7FEA645C1ABF71
:1003B800194610467FEA655C1CBF0B46024650EAA8
:1003C800013406BF52EA033591EA030F41F40021D4
:1003D80030BD00BF90F0000F04BF0021704730B55A
:1003E8004FF4806404F132044FF000054FF000012F
:1003F80050E700BF90F0000F04BF0021704730B5F0
:100408004FF4806404F1320410F0004548BF4042C4
:100418004FF000013EE700BF42004FEAE2014FEA19
:1004280031014FEA02701FBF12F07F4393F07F4FF4
:1004380081F06051704732F07F4208BF704793F0F7
:100448007F4F04BF41F40021704730B54FF460740A
:1004580001F0004521F000411CE700BF50EA01020D
:1004680008BF704730B54FF000050AE050EA0102B6
:1004780008BF704730B511F0004502D5404261EB26
:1004880041014FF4806404F132045FEA915C3FF467
:10049800D8AE4FF003025FEADC0C18BF03325FEA04
:1004A800DC0C18BF033202EBDC02C2F1200300FAB5
:1004B80003FC20FA02F001FA03FE40EA0E0021FADA
:1004C80002F11444BDE600BF70B54FF0FF0C4CF4C8
:1004D800E06C1CEA11541DBF1CEA135594EA0C0F7A
:1004E80095EA0C0F00F0DEF82C4481EA030621EAB5
:1004F8004C5123EA4C5350EA013518BF52EA0335F0
:1005080041F4801143F4801338D0A0FB02CE4FF0A1
:100518000005E1FB02E506F00042E0FB03E54FF0D1
:100528000006E1FB03569CF0000F18BF4EF0010EC9
:10053800A4F1FF04B6F5007F64F5407404D25FEAC5
:100548004E0E6D4146EB060642EAC62141EA555178
:100558004FEAC52040EA5E504FEACE2EB4F1FD0CBA
:1005680088BFBCF5E06F1ED8BEF1004F08BF5FEA38
:10057800500E50F1000041EB045170BD06F00046EA
:1005880046EA010140EA020081EA0301B4EB5C0497
:10059800C2BFD4EB0C0541EA045170BD41F480118F
:1005A8004FF0000E013C00F3AB8014F1360FDEBFB4
:1005B800002001F0004170BDC4F10004203C35DA90
:1005C8000C341BDC04F11404C4F1200500FA05F313
:1005D80020FA04F001FA05F240EA020001F00042B4
:1005E80021F0004110EBD37021FA04F642EB06012A
:1005F8005EEA430E08BF20EAD37070BDC4F10C0454
:10060800C4F1200500FA04F320FA05F001FA04F217
:1006180040EA020001F0004110EBD37041F1000103
:100628005EEA430E08BF20EAD37070BDC4F120050E
:1006380000FA05F24EEA020E20FA04F301FA05F276
:1006480043EA020321FA04F001F0004121FA04F21E
:1006580020EA020000EBD3705EEA430E08BF20EAEE
:10066800D37070BD94F0000F0FD101F00046400028
:1006780041EB010111F4801F08BF013CF7D041EAAA
:10068800060195F0000F18BF704703F000465200AE
:1006980043EB030313F4801F08BF013DF7D043EA7F
:1006A8000603704794EA0C0F0CEA135518BF95EA35
:1006B8000C0F0CD050EA410618BF52EA4306D1D1BC
:1006C80081EA030101F000414FF0000070BD50EADB
:1006D800410606BF1046194652EA430619D094EA65
:1006E8000C0F02D150EA013613D195EA0C0F05D14F
:1006F80052EA03361CBF104619460AD181EA0301A3
:1007080001F0004141F0FE4141F470014FF000005A
:1007180070BD41F0FE4141F4780170BD70B54FF0F5
:10072800FF0C4CF4E06C1CEA11541DBF1CEA135575
:1007380094EA0C0F95EA0C0F00F0A7F8A4EB050457
:1007480081EA030E52EA03354FEA013100F088804E
:100758004FEA03334FF0805545EA131343EA126317
:100768004FEA022245EA111545EA10654FEA0026CC
:100778000EF000419D4208BF964244F1FD0404F585
:10078800407402D25B084FEA3202B61A65EB0305E1
:100798005B084FEA32024FF480104FF4002CB6EB9E
:1007A800020E75EB030E22BFB61A754640EA0C001E
:1007B8005B084FEA3202B6EB020E75EB030E22BF5E
:1007C800B61A754640EA5C005B084FEA3202B6EB9F
:1007D800020E75EB030E22BFB61A754640EA9C005E
:1007E8005B084FEA3202B6EB020E75EB030E22BF2E
:1007F800B61A754640EADC0055EA060E18D04FEAEC
:10080800051545EA16754FEA06164FEAC30343EA8B
:1008180052734FEAC2025FEA1C1CC0D111F4801F58
:100828000BD141EA00014FF000004FF0004CB6E751
:1008380011F4801F04BF01430020B4F1FD0C88BFF0
:10084800BCF5E06F3FF6AFAEB5EB030C04BFB6EBFB
:10085800020C5FEA500C50F1000041EB045170BDEE
:100868000EF0004E4EEA113114EB5C04C2BFD4EB1B
:100878000C0541EA045170BD41F480114FF0000E9F
:10088800013C90E645EA060E8DE60CEA135594EA1B
:100898000C0F08BF95EA0C0F3FF43BAF94EA0C0F1E
:1008A8000AD150EA01347FF434AF95EA0C0F7FF493
:1008B80025AF104619462CE795EA0C0F06D152EAE7
:1008C80003353FF4FDAE1046194622E750EA4106CB
:1008D80018BF52EA43067FF4C5AE50EA41047FF4DC
:1008E8000DAF52EA43057FF4EBAE12E74FF0FF3C41
:1008F80006E000BF4FF0010C02E000BF4FF0010C12
:100908004DF804CD4FEA410C7FEA6C5C4FEA430C8A
:1009180018BF7FEA6C5C1BD001B050EA410C0CBFD9
:1009280052EA430C91EA030F02BF90EA020F00203B
:10093800704710F1000F91EA030F58BF994208BFA2
:1009480090422CBFD8176FEAE37040F0010070475F
:100958004FEA410C7FEA6C5C02D150EA013C07D1B6
:100968004FEA430C7FEA6C5CD6D152EA033CD3D001
:100978005DF8040B704700BF8446104662468C46FB
:100988001946634600E000BF01B5FFF7B7FF00282E
:1009980048BF10F1000F01BD4DF808EDFFF7F4FF57
:1009A8000CBF012000205DF808FB00BF4DF808EDE2
:1009B800FFF7EAFF34BF012000205DF808FB00BF05
:1009C8004DF808EDFFF7E0FF94BF012000205DF827
:1009D80008FB00BF4DF808EDFFF7CEFF94BF0120DC
:1009E80000205DF808FB00BF4DF808EDFFF7C4FFD5
:1009F80034BF012000205DF808FB00BF4FEA410228
:100A0800B2F1E04324BFB3F5001CDCF1FE5C0DD964
:100A180001F0004C4FEAC0024CEA5070B2F1004FAE
:100A280040EB830008BF20F00100704711F0804FB1
:100A380021D113F13872BCBF01F00040704741F476
:100A480080114FEA5252C2F11802C2F1200C10FA7A
:100A58000CF320FA02F018BF40F001004FEAC1235E
:100A68004FEAD32303FA0CFC40EA0C0023FA02F302
:100A78004FEA4303CCE77FEA625307D150EA0133D8
:100A88001EBF4FF0FE4040F44000704701F00040A8
:100A980040F0FE4040F40000704700BF4FF0FF0CEC
:100AA8001CEAD0521EBF1CEAD15392EA0C0F93EAFB
:100AB8000C0F6FD01A4480EA010C400218BF5FEA9D
:100AC80041211ED04FF0006343EA501043EA511110
:100AD800A0FB01310CF00040B1F5000F3EBF49000A
:100AE80041EAD3715B0040EA010062F17F02FD2A0E
:100AF8001DD8B3F1004F40EBC25008BF20F00100F1
:100B0800704790F0000F0CF0004C08BF49024CEA07
:100B1800502040EA51207F3AC2BFD2F1FF0340EA99
:100B2800C250704740F400004FF00003013A5DDC0A
:100B380012F1190FDCBF00F000407047C2F100024B
:100B4800410021FA02F1C2F1200200FA02FC5FEA38
:100B5800310040F1000053EA4C0308BF20EADC7082
:100B6800704792F0000F00F0004C02BF400010F4F4
:100B7800000F013AF9D040EA0C0093F0000F01F0A1
:100B8800004C02BF490011F4000F013BF9D041EAC3
:100B98000C018FE70CEAD15392EA0C0F18BF93EAC5
:100BA8000C0F0AD030F0004C18BF31F0004CD8D1EF
:100BB80080EA010000F00040704790F0000F17BF76
:100BC80090F0004F084691F0000F91F0004F14D0BC
:100BD80092EA0C0F01D142020FD193EA0C0F03D114
:100BE8004B0218BF084608D180EA010000F0004017
:100BF80040F0FE4040F40000704740F0FE4040F4F2
:100C0800400070474FF0FF0C1CEAD0521EBF1CEA90
:100C1800D15392EA0C0F93EA0C0F69D0A2EB0302AE
:100C280080EA010C49024FEA402037D04FF0805348
:100C380043EA111143EA10130CF000408B4238BF0D
:100C48005B0042F17D024FF4000C8B4224BF5B1A1B
:100C580040EA0C00B3EB510F24BFA3EB510340EA69
:100C68005C00B3EB910F24BFA3EB910340EA9C0017
:100C7800B3EBD10F24BFA3EBD10340EADC001B0187
:100C880018BF5FEA1C1CE0D1FD2A3FF650AF8B422B
:100C980040EBC25008BF20F0010070470CF0004C38
:100CA8004CEA50207F32C2BFD2F1FF0340EAC25063
:100CB800704740F400004FF00003013A37E792F024
:100CC800000F00F0004C02BF400010F4000F013A82
:100CD800F9D040EA0C0093F0000F01F0004C02BF7D
:100CE800490011F4000F013BF9D041EA0C0195E7E6
:100CF8000CEAD15392EA0C0F08D142027FF47DAF7F
:100D080093EA0C0F7FF470AF084676E793EA0C0F6E
:100D180004D14B023FF44CAF08466EE730F0004C6C
:100D280018BF31F0004CCAD130F000427FF45CAFFC
:100D380031F000437FF43CAF5FE700BF4FF0FF3C6A
:100D480006E000BF4FF0010C02E000BF4FF0010CBD
:100D58004DF804CD4FEA40024FEA41037FEA226C86
:100D680018BF7FEA236C11D001B052EA530C18BFA8
:100D780090EA010F58BFB2EB030088BFC81738BF0D
:100D88006FEAE17018BF40F0010070477FEA226CFB
:100D980002D15FEA402C05D17FEA236CE4D15FEAF7
:100DA800412CE1D05DF8040B704700BF844608462B
:100DB8006146FFE70FB5FFF7C9FF002848BF10F1EC
:100DC800000F0FBD4DF808EDFFF7F4FF0CBF012031
:100DD80000205DF808FB00BF4DF808EDFFF7EAFFBB
:100DE80034BF012000205DF808FB00BF4DF808ED76
:100DF800FFF7E0FF94BF012000205DF808FB00BF6B
:100E08004DF808EDFFF7D2FF94BF012000205DF8F0
:100E180008FB00BF4DF808EDFFF7C8FF34BF0120FD
:100E280000205DF808FB00BF7BB972B90029BEBF7E
:100E380000204FF0004106E008BF00281CBF6FF0FB
:100E480000414FF0FF3000F075B8ADF1080C6DE9C6
:100E580004CE002909DB002B1ADB01F0D4F8DDF8F9
:100E680004E0DDE9022304B07047404261EB410130
:100E7800002B1BDB01F0C7F8DDF804E0DDE90223F5
:100E880004B0404261EB4101524263EB43037047B7
:100E9800524263EB430301F0B6F8DDF804E0DDE904
:100EA800022304B0404261EB41017047524263EBB8
:100EB800430301F0A8F8DDF804E0DDE9022304B0FB
:100EC800524263EB4303704753B94AB9002908BF3C
:100ED80000281CBF4FF0FF314FF0FF3000F02AB858
:100EE800ADF1080C6DE904CE01F08DF8DDF804E0F1
:100EF800DDE9022304B07047D0B500220B4B06464B
:100F08000F46FFF7E1FA00F017F80446FFF762FA18
:100F18000022074BFFF7D8FA02460B4630463946FF
:100F2800FFF71AF900F008F82146D0BD0000F03D9F
:100F38000000F041704700BF4A0011D212F50012BC
:100F480011D20DD56FF47873B3EB62520ED44FEA19
:100F5800C12343F0004343EA505323FA02F0704799
:100F68004FF00000704750EA013002D14FF0FF30D7
:100F780070474FF000007047844641EA000313F0C1
:100F8800030349D1403A23D30B6803604B6843609D
:100F98008B688360CB68C3600B6903614B694361ED
:100FA8008B698361CB69C3610B6A03624B6A4362D5
:100FB8008B6A8362CB6AC3620B6B03634B6B4363BD
:100FC8008B6B8363CB6BC36340304031403ADBD2D9
:100FD80030320BD30B6803604B6843608B688360C7
:100FE800CB68C36010301031103AF3D20C3205D3FD
:100FF80051F8043B40F8043B043AF9D2043208D0D3
:10100800D2071CBF11F8013B00F8013B01D30B8844
:1010180003806046704700BF082A13D38B07B1D0FE
:1010280010F00303AED0C3F10403D21ADB071CBFD0
:1010380011F8013B00F8013BA4D331F8023B20F83A
:10104800023B9FE7043AD9D3013A11F8013B00F873
:10105800013BF9D20B7803704B7843708B7883701F
:101068006046704780EA010C1CF0030F37D110F07E
:10107800030C20F0030021F0030150F8042B08BFF3
:1010880051F8043B0ED08CF0030C6FF07F434FEA0D
:10109800CC0C23FA0CFC51F8043B42EA0C0243EA5C
:1010A8000C0300BFA2F1013C9A4201BF2CEA020CDA
:1010B8001CF0803F50F8042B51F8043BF2D04FEA63
:1010C80002604FEA1222012828BFB0EB036F08BF65
:1010D8001B0AF4D003F0FF03000EC01A704710F08B
:1010E800030F0AD010F8012B11F8013B012A28BF81
:1010F8009A42F4D0A2EB030070474DF8045D50F813
:10110800042B01F0030521F0030151F8043B022DE3
:1011180026D04DD822F07F45B5EB132FA2F1013C24
:101128002CEA020C0DD11CF0803C08BF51F8043B9E
:101138000AD185EA0205B5EB036F0CD150F8042BF0
:10114800E8E74FEA13235BE03CF07F4C54D10B787F
:101158004FEA126554E04FEA126503F0FF034FE0CF
:101168004FEA0245A2F1013C4FEA15452CEA020C70
:10117800B5EB134F18D11CF0803C08BF51F8043B65
:1011880007D185EA0205B5EB034F09D150F8042BC6
:10119800E6E75FEA0C4C2FD10B884FEA12452FE0A7
:1011A8004FEA03434FEA12454FEA134328E000BFD2
:1011B80002F0FF05B5EB136FA2F1013C2CEA020C1B
:1011C8000DD11CF0803C08BF51F8043B0AD185EAD8
:1011D8000205B5EB032F0AD150F8042BE8E74FEAD4
:1011E80013630DE012F0FF0F06D051F8043B4FEAED
:1011F800122523F07F4303E04FF0000020BC704726
:1012080005F0FF0203F0FF00012828BF904204BF49
:101218002D0A1B0AF4D0A2EB000020BC704700BFC7
:101228004FEA410C7FEA6C5C02D150EA013C0AD1DA
:101238004FEA430C7FEA6C5C02D152EA033C02D1CC
:101248004FF0000070474FF0010070474FEA41022D
:1012580012F5001215D211D56FF47873B3EB625200
:1012680012D94FEAC12343F0004343EA505311F027
:10127800004F23FA02F018BF404270474FF00000B9
:10128800704750EA013005D111F0004008BF6FF0F7
:10129800004070474FF00000704700BF2DE9F14F44
:1012A80003F11C0402EB840C4FEA930B8A68CB68A9
:1012B8000868496800F046F93CE9F0006040694078
:1012C80072407B400BF1060E4EE083EA134480EA3D
:1012D800134582EA134746BA96EA3444604000F060
:1012E8000F1684EA063420F00F1684EA161054BA52
:1012F80094EA0106724002F00F1486EA043622F0DE
:101308000F1486EA14124CBA6540694001F00F14B4
:1013180085EA043521F00F1485EA14115CBA674098
:101328007B4003F00F1487EA043723F00F1487EA91
:10133800141344BA44404DBA4D4056BA56405FBAA9
:101348005F4087EA174886EA174B84EA17464FEA50
:1013580038488BEA1B4485EA1B4788EA1B4580EA24
:101368003440694072407B4000F0703400F08035B2
:1013780000F00F3040EA440040EAD50080EA9004CB
:1013880004F0332480EA8400604001F0703401F0F6
:10139800803501F00F3141EA440141EAD50181EA83
:1013A800910404F0332481EA8401614002F070342E
:1013B80002F0803502F00F3242EA440242EAD502D6
:1013C80082EA920404F0332482EA8402624003F041
:1013D800703403F0803503F00F3343EA440343EAE3
:1013E800D50383EA930404F0332483EA8403634037
:1013F800C943DB4381EA000483EA044686EA020122
:1014080083EA014382EA334583EA14435C4084EA71
:1014180000077FEA040A8AEA024A8AEA010B87EA95
:1014280011488AEA374A80EA060181EA1A418AEABB
:10143800030A04EA0A00454088EA040707EA0B00A1
:1014480041408AEA0B0608EA060084EA34428AEA3E
:101458003A4602EA060358404540414087EA374386
:101468008BEA3B4003EA000985EA090582EA030999
:10147800464006EA0906714085EA010005EA354654
:10148800464006EA314181EA304181EA364606EAB9
:10149800304686EA354634400F4086EA010508EAB8
:1014A800050886EA3640024088EA020881EA3142A5
:1014B80013405C4080EA020309EA030987EA090746
:1014C800674088EA040806EA0A0601EA0B018AEA84
:1014D8000B0425408AEA3A44204045408BEA3B4BBE
:1014E80002EA0B02564084EA0B04234059406E403E
:1014F800694087EA364080EA384080EA060380EA95
:10150800104481EA134585EA344585EA17427D404F
:1015180082EA354180EA05403CE9F00060406940D4
:1015280072407B40BEF1010E3FF6CFAE20BC00F00A
:101538005FF828606960AA60EB60BDE8F08F00BFC3
:1015480000F000BA80EA101404F0F01480EA0410E5
:10155800604081EA111404F0F01481EA041161403A
:1015680082EA121404F0F01482EA0412624083EA58
:10157800131404F0F01483EA0413634080EA10247F
:1015880004F47F4480EA0420604081EA112404F4D2
:101598007F4481EA0421614082EA122404F47F44F2
:1015A80082EA0422624083EA132404F47F4483EA33
:1015B8000423634081EA500404F0553480EA44006F
:1015C800614083EA520404F0553482EA44026340DD
:1015D80082EA900404F0333480EA8400624083EAAB
:1015E800910404F0333481EA84016340704700BFFA
:1015F80082EA900404F0333480EA8400624083EA8B
:10160800910404F0333481EA8401634081EA500490
:1016180004F0553480EA4400614083EA520404F03F
:10162800553482EA4402634080EA102404F47F447B
:1016380080EA0420604081EA112404F47F4481EAAE
:101648000421614082EA122404F47F4482EA0422DD
:10165800624083EA132404F47F4483EA042363404A
:1016680080EA101404F0F01480EA0410604081EA63
:10167800111404F0F01481EA0411614082EA121492
:1016880004F0F01482EA0412624083EA131404F0AE
:10169800F01483EA04136340704700BF2DE9F14F4B
:1016A80094464FEA930B8A68CB6808684968FFF745
:1016B80049FF0BF1060E33E083EA134480EA134531
:1016C80082EA134746BA96EA3444604000F00F169F
:1016D80084EA063420F00F1684EA161054BA94EA05
:1016E8000106724002F00F1486EA043622F00F1445
:1016F80086EA14124CBA6540694001F00F1485EA75
:10170800043521F00F1485EA14115CBA67407B4058
:1017180003F00F1487EA043723F00F1487EA141331
:10172800BCE8F0006040694072407B4000F0E03463
:1017380000F0103500F00F3040EA540040EAC500D0
:1017480080EA900404F0332480EA8400604001F0C9
:10175800E03401F0103501F00F3141EA540141EA5B
:10176800C50181EA910404F0332481EA84016140CF
:1017780002F0E03402F0103502F00F3242EA54026F
:1017880042EAC50282EA920404F0332482EA84021F
:10179800624003F0E03403F0103503F00F3343EAFE
:1017A800540343EAC50383EA930404F0332483EA29
:1017B8008403634081EA324787EA134581EA354664
:1017C80090EA060484EA034B82EA1B4280EA044456
:1017D80084EA054483EA144A85EA14448BEA044BF4
:1017E80084EA374481EA0B4181EA164104EA0A0097
:1017F800454082EA04082BEA080041408AEA0B06C1
:1018080002EA060084EA34438AEA3A4603EA06070B
:1018180078404540414088EA38478BEA3B4007EA30
:10182800000985EA090583EA0709464006EA090628
:10183800714085EA010005EA3546464006EA31412D
:1018480081EA304181EA364606EA304686EA35467C
:10185800344008EA010886EA01052A4086EA36404B
:1018680003405A4081EA31431F407C4080EA030725
:1018780009EA070988EA0908544088EA020806EADA
:101888000A0601EA0B018AEA0B0215408AEA3A4283
:10189800104045408BEA3B4003405E4042401740C1
:1018A80079404D404E40E443F64386EA18435D4094
:1018B80085EA054083EA134386EA034183EA38420E
:1018C80084EA114383EA04435FEA3343BEF1010E1D
:1018D8003FF6F2AE1ED4BCE8F000604069407240AA
:1018E8007B4020BCFFF784FE28606960AA60EB603B
:1018F800BDE8F08F2DE9E0414FF2F00280EA1031A7
:10190800114080EA0130484041088208C3084FF07E
:10191800000E4FE700F0113001F0113102F01132E2
:1019280003F0113340EA410040EA820040EAC30074
:101938004FF2F00280EA1031114080EA013048404D
:10194800BDE8E0812DE9F04F02F11C050646074687
:1019580000EB850851F8040B043A46F8040BF9D15A
:101968004FF0010CFFF7C6FF5FEA302080EA0C0059
:101978001ECF41404A4053405C401EC620004645A9
:1019880017D04FEA4C0C1CF4807F18BFACF1E50C63
:101998002C2DE7D03C2D06D1FFF7ACFF06CF4140F8
:1019A8004A4006C6100006CF41404A4006C610000D
:1019B800D8E736E90F00FFF7C5FD043D86E80F00BC
:1019C800F7D1BDE8F08F00BF2DE9F04FB0E8FE0772
:1019D80083B02DE9010790E8005F4FF00A000690F8
:1019E8000198DB199CEA030C18EB3C4897EA0807B6
:1019F80013EB375393EA3C4C18EB3C6898EA37579B
:101A080024189EEA040E19EB3E4990EA090014EBEB
:101A1800305494EA3E4E19EB3E6999EA3050CDE9CC
:101A28000489DDE9028949199AEA010A18EB3A485A
:101A380095EA080511EB355191EA3A4A18EB3A68EC
:101A480098EA355592199BEA020B19EB3B4996EA3D
:101A5800090612EB365292EA3B4B19EB3B6999EABD
:101A6800365613EB706393EA3B6B18EB3B4898EAE6
:101A7800706013EB305393EA3B4B5FEA3B6B18EB18
:101A88000B0898EA30505FEA706014EB756494EACA
:101A98003C6C19EB3C4999EA756514EB355494EAAA
:101AA8003C4C5FEA3C6C19EB0C0999EA35555FEA46
:101AB8007565CDE90289DDE9048911EB766191EA62
:101AC8003E6E18EB3E4898EA766611EB365191EA7D
:101AD8003E4E5FEA3E6E18EB0E0898EA36565FEA0D
:101AE800766612EB776292EA3A6A19EB3A4999EA12
:101AF800776712EB375292EA3A4A5FEA3A6A19EB89
:101B08000A0999EA37575FEA77670190069801381A
:101B18007FF465AF01BC80E8005FBDE8000700E91D
:101B2800FE0703B0BDE8F08F30B44FF0000310F8A3
:101B3800014B11F8015B013A84EA050443EA040306
:101B4800F5D1A3F101034FEAD37030BC704700BF51
:101B58004FF0000310F8012B013943EA0203F9D1D1
:101B6800A3F101034FEAD370704700BF30B411F8F6
:101B7800014B12F8015B6C4000F8014B013BF6D1B8
:101B880030BC70472DE9F14FF8C892E8005E19EBB8
:101B980003095AEB040A5BEB050B5CEB060C4EEBF6
:101BA800070E91E8E001A9FB0502AAFB0543E9FB42
:101BB8006624EAFB6634A9FB0765E9FB6845B1E8DA
:101BC8000003EBFB6836ECFB6846EEFB6856ABFBA4
:101BD8000987ECFB6957EEFB696791E80202EAFBAB
:101BE8006148EBFB6158ECFB6168EEFB61784FF0F4
:101BF8000001EAFB0951EBFB6961ECFB6971EEFB43
:101C080069814FF4A03C4FEA154949EA06495FF05B
:101C1800000AE9FB0C0A4FEA164646EA0746E6FBC5
:101C28006C2A4FEA174747EA0847E7FB6C3A4FEA3E
:101C3800184848EA0148E8FB6C4AADB25544AF0879
:101C480005F0030507EB8707C01952F1000153F1AE
:101C5800000254F1000345F1000420BC1FC5BDE893
:101C6800F08F00BF30B490E83C10511D53F10001D3
:101C780054F1000155F100014CF100014FEA9101C6
:101C8800494201F00501521853F1000354F10004D0
:101C980055F100054CF1000C0CF0030C80E83C10E9
:101CA80030BC70472DE9F04F90E8F00F00F140008C
:101CB8004FF0040E59E0F0B4826BC36B046805253D
:101CC800242687593C444FEA724787EAF24787EA55
:101CD80092273C4442684FEAF21787EAB24787EAFC
:101CE800D2073C4440F8044B032D08BF6FF01B0695
:101CF80087593A444FEA734787EAF34787EA9327B5
:101D08003A4443684FEAF31787EAB34787EAD307A9
:101D18003A4440F8042B87593B444FEA744787EA12
:101D2800F44787EA94273B4444684FEAF41787EA64
:101D3800B44787EAD4073B4440F8043B013DC0D18F
:101D4800A0F13C00076A3C444FEA724787EAF24731
:101D580087EA92273C4402684FEAF21787EAB247BB
:101D680087EAD2073C44C463F0BC4FF0020288EA19
:101D7800781C8CEAF84C0BEBBC1C8AEA090303EAD2
:101D8800080383EA0A039C4450F8043B9C4451F836
:101D9800043B9C44674444EA050B0BEA060B04EA3F
:101DA80005034BEA030BE34484EAF42383EA345340
:101DB8000BEBB30B87EA771C8CEAF74C0AEBBC1CDD
:101DC80089EA080303EA070383EA09039C4450F8F5
:101DD800043B9C4451F8043B9C4466444BEA040A87
:101DE8000AEA050A0BEA04034AEA030AE2448BEA10
:101DF800FB2383EA3B530AEBB30A86EA761C8CEA98
:101E0800F64C09EBBC1C88EA070303EA060383EADD
:101E180008039C4450F8043B9C4451F8043B9C4400
:101E280065444AEA0B0909EA04090AEA0B0349EA84
:101E38000309E1448AEAFA2383EA3A5309EBB3092E
:101E480085EA751C8CEAF54C08EBBC1C87EA06038E
:101E580003EA050383EA07039C4450F8043B9C44C7
:101E680051F8043B9C44644449EA0A0808EA0B0810
:101E780009EA0A0348EA0308E04489EAF92383EAFD
:101E8800395308EBB30884EA741C8CEAF44C07EB6A
:101E9800BC1C86EA050303EA040383EA06039C44A0
:101EA80050F8043B9C4451F8043B9C44E34448EA02
:101EB800090707EA0A0708EA090347EA0307674424
:101EC80088EAF82383EA385307EBB3078BEA7B1CCD
:101ED8008CEAFB4C06EBBC1C85EA040303EA0B0303
:101EE80083EA05039C4450F8043B9C4451F8043BA6
:101EF8009C44E24447EA080606EA090607EA08039A
:101F080046EA0306664487EAF72383EA375306EB73
:101F1800B3068AEA7A1C8CEAFA4C05EBBC1C84EA04
:101F28000B0303EA0A0383EA04039C4450F8043BC6
:101F38009C4451F8043B9C44E14446EA070505EA01
:101F4800080506EA070345EA0305654486EAF62319
:101F580083EA365305EBB30589EA791C8CEAF94C18
:101F680004EBBC1C8BEA0A0303EA090383EA0B03AC
:101F78009C4450F8043B9C4451F8043B9C44E04486
:101F880045EA060404EA070405EA060344EA0304EA
:101F9800644485EAF52383EA355304EBB304013A34
:101FA8007FF4E5AEA0F14000BEF1010E7FF483AEF0
:101FB800A0F1400C9CE80F00001949199219DB198F
:101FC800ACE80F009CE80F004044494452445B448D
:101FD800ACE80F00BDE8F08F38B5002200230446B6
:101FE8000D46FEF7E3FC28B920462946BDE83840EF
:101FF800FEF782BF204605F10041FEF77DFF404213
:1020080061EB410138BD2DE9F04786468C4608460C
:10201800089E154674461946002B40F0C18085423B
:10202800B2FA82F245D94AB1C2F1200300FA02FCA1
:10203800954094402EFA03F343EA0C0C4FEA154EF0
:10204800A8B2230CBCFBFEF80EFB18CC08FB00F969
:1020580043EA0C43994528D9EB1808F1FF3704D215
:10206800994502D9A8F102072B44A3EB0903A4B2AE
:10207800B3FBFEFC0EFB1C330CFB00F044EA0344EC
:10208800A04214D92C190CF1FF3304D2A04202D972
:10209800ACF102032C44241A43EA07401EB1D44091
:1020A800002334607360BDE8F0874746DDE7634688
:1020B800F1E792BB431B01214FEA154EAFB2200C4A
:1020C800B3FBFEFC0EFB1C330CFB07F840EA034392
:1020D800984561D9EB180CF1FF3004D2984502D924
:1020E800ACF102002B44A3EB0803A4B2B3FBFEFC43
:1020F8000EFB1C330CFB07F744EA0344A7424DD9F7
:102108002C190CF1FF3304D2A74202D9ACF1020317
:102118002C44E41B43EA0040C0E7C2F12003954089
:10212800944020FA03F12EFA03F34FEA154E90403B
:10213800AFB20343B1FBFEFC0EFB1C10190C0CFBE9
:1021480007F841EA0041884522D969180CF1FF30A7
:1021580004D2884502D9ACF102002944A1EB080158
:102168009BB2B1FBFEFC0EFB1C110CFB07F743EA0C
:1021780001439F420ED9EB180CF1FF3104D29F4264
:1021880002D9ACF102012B44DB1B41EA004193E781
:102198006046E3E76146F7E76046A4E76346B8E7C9
:1021A800834206D916B9002108467CE7C6E900E053
:1021B800F9E7B3FA83F78FB9834201D3724508D898
:1021C800BEEB020460EB030301209C461EB900210C
:1021D80069E73846FAE7C6E9004CF8E7C7F1200C8A
:1021E800BB400EFA07F522FA0CF42EFA0CF1BA40AD
:1021F8001C4320FA0CF3B8404FEA144901431FFA74
:1022080084FEB3FBF9F809FB18300B0C08FB0EFA37
:1022180043EA00439A4540D9E31808F1FF3004D255
:102228009A4502D9A8F102002344A3EB0A0389B214
:10223800B3FBF9F809FB183308FB0EFE41EA03412A
:102248008E452CD9611808F1FF3304D28E4502D986
:10225800A8F10203214443EA0040A1EB0E01A0FBD0
:1022680002984145CE46434602D306D14D4504D295
:102278000138B9EB020E68EB0403002EA7D0B5EBCA
:102288000E0261EB030101FA0CFC22FA07F3F94094
:102298004CEA0303C6E9003199E74046C5E74346DF
:1022A800D9E7000000000000012870B50D4606D0EF
:1022B8006AF0AAF9162303604FF0FF3070BD78F07A
:1022C8002AFF1D4A2B686E68A3FB023402FB0644F2
:1022D800AD685B1944EBE574C50B45EA4145A5FBC0
:1022E8000256C90B02FB01615B1BC0F30E0064EBD5
:1022F8000101A0FB0204C20B42EA4442981A61F1B0
:1023080000010BA3D3E90023FEF78EFD4FF0200355
:10231800EFF3118483F31288BFF36F8F074BC3E980
:1023280000019A6084F31188BFF36F8F0020C5E71E
:1023380000CA9A3B0000000000CA9A3BC047002030
:102348002DE9F04F0C46D0F82011A3B00B6B1546C1
:1023580015905BBB159818A9276ED4F88060D5F83E
:1023680080B073F069FB78B34FF0000A06F59C5310
:1023780008339B4522D82B6DB3F57A6F179355DD3B
:10238800236DB3F57A6FACBF00230123002F16939A
:102398004EDB0BF59C5308339E4200F24081BAF1A4
:1023A800190F00F33C814FF0020877E0062218313C
:1023B80005F1200055F096F80028CBD14FF0010820
:1023C800404623B0BDE8F08FDDF870A0BAF1000FE9
:1023D80004D1DDF86CA0BAF1000FC7D042F20F713A
:1023E8001D9B189A8B420AD16FF47A63D31840F276
:1023F800657293428CBF6FF058036FF05B03204601
:10240800AAEB030871F009FED4F88C20034604F106
:1024180094010AB9D4F89020206D5746CDE9008080
:10242800159842F0BDFAC24606469FE70023ADE77D
:102438002B6E169A03EB42039F4215DD5846FDF7B3
:10244800C9FF804630468946FDF7C4FF4FF0333256
:10245800774BFEF739F802460B4640464946FEF7E9
:10246800A5FA002840F0DB800BF59C5308339E4208
:1024780000F2D580BAF1190F00F3D18017F1550F8A
:1024880069DB17F1500F8EDB17F14B0F66DB17F185
:10249800460FB4BF4FF004084FF005083046FDF76B
:1024A80099FF814658468A46FDF794FF02460B4637
:1024B800CDE9122300225F4BFEF706F802460B46D1
:1024C80048465146FEF790FA00284AD008F10A0813
:1024D800169B0BB1A8F102082B6E0321CDE9103B26
:1024E800DA1B179B90450F9395F82530524A0E93A7
:1024F80095F82430C8BF4FF000080D9395F82330A5
:10250800D8BF4FF001080C9395F822300B9395F83B
:1025180021300A9395F820300797CDE90863236D99
:10252800069394F82530059394F82430049394F88E
:102538002330039394F82230029394F821300193C6
:1025480094F8203000933D4B1598C8BF13463C4A79
:102558004CF0A4FF34E74FF001089FE74FF0030861
:102568009CE74FF03332DDE91201314BFDF7ACFF48
:1025780002460B4648465146FEF736FA10B108F1B6
:102588000508A5E728A3D3E90023DDE91201FDF733
:102598009BFF02460B4648465146FEF725FA10B106
:1025A80008F1020894E7B34502D208F101088FE761
:1025B8000022204B48465146FDF786FF02460B464F
:1025C800DDE91201FEF710FA10B1A8F10A087FE759
:1025D8004FF03332164B48465146FDF775FF024619
:1025E8000B46DDE91201FEF7FFF910B1A8F1050865
:1025F8006EE70DA3D3E9002348465146FDF764FF73
:1026080002460B46DDE91201FEF7EEF910B1A8F11A
:1026180002085DE7B34588BF08F1FF3858E74FF077
:102628000008CDE6AFF300809A9999999999F13FFE
:102638003333F33F0000F83F86F7090072F70900CB
:102648009CF70900000000002DE9F04F1C46794B6B
:102658009FB00E4600258346186807921A95089081
:1026680056F026FA0021024633460020CDE904013F
:102678009846199313F801ABBAF12D0F5ED801A152
:1026880051F82AF0232800004527000045270000BC
:102698004527000045270000452700004527000082
:1026A800452700004527000079260000792600000C
:1026B80079260000792600007926000045270000C9
:1026C8004527000045270000452700004527000052
:1026D8004527000045270000452700004527000042
:1026E8004527000045270000452700004527000032
:1026F8004527000045270000452700004527000022
:1027080045270000792600004527000045270000DE
:102718004527000045270000452700004527000001
:1027280045270000452700004527000045270000F1
:10273800F72D000045270000112E00000023099303
:10274800BAF1300F00F0688200230A93AAF130032F
:10275800092B00F25684002740463D463C4601308E
:10276800082C07EB870104F1010405EB850C19908F
:1027780090F800A0CCBF03EB410703EB4C05AAF18E
:102788003003092BEBD90899089256F0E9F9089A11
:102798008146002850D1199B014608949818199031
:1027A8009B5CA3F13002092A00F2F08201319246C3
:1027B8001998002A40F0F884431C19934378F0E7ED
:1027C8004FF0010EB31C1993B378A3F1300CBCF190
:1027D800090F00F2F582199A302B0B9240F02B83E7
:1027E800013219921378302BFAD0A3F131000B92F1
:1027F800082840F21E8300220C9254BB0A9A0A430E
:1028080040F09882BAF1000F07D1692B00F03983A4
:1028180040F318826E2B00F01B82079B4FF00008D4
:102828004FF0000903B11E60404649461FB0BDE89D
:10283800F08F00BFAC4B08002AF02002002153465D
:102848000894452A89468A4600F0AD820C91002CEE
:10285800D4D0089A2846A2461346002A08BF234621
:102868000893FDF7B7FD0B460246102CCDE904236B
:102878000C9BA8BF4FF0100A092CA3EB09030B937C
:1028880017DD544B03EBCA0353E91223FDF71CFE73
:10289800024638460F461646FDF79CFD02460B4693
:1028A80030463946FDF75AFC0F2CCDE9040100F3F8
:1028B800E1810B9B002B00F097820B9B40F3A782D2
:1028C800162B40F39A84C4F125030B9A934280F2A5
:1028D800DA84A4EB0A06164416F00F000AD03D4924
:1028E80001EBC001DDE90423D1E90001FDF7ECFDAE
:1028F800CDE9040136F00F034ED0B3F59A7F00F30B
:102908004684102B4FEA231640F3B285DFF8C8E05F
:102918004FF0000CCDF828907746E246F146DDE905
:10292800042316F0010F104619464FEA66060AF10D
:10293800010A07D0D7E90023FDF7C6FD4FF0010CC7
:1029480002460B46012E07F10807EAD1CE46DDF80C
:102958002890BCF1000F01D0CDE90423059B0EEBB4
:10296800CA0E1E4EA3F154730593DDE90423DEE974
:102978000001FDF7A9FD1A4B0A460B40B342CDE909
:10298800040100F2048417498B4240F2FE844FF0A0
:10299800FF33154ACDE9043200230A932346089AE7
:1029A8004146584600955EF039FF1590002800F022
:1029B800EE830B9A4FF0000A0C9B002ACDF820A05A
:1029C800A9EB0303A8BF00230C9322EAE273149334
:1029D800E2E000BFF8FE0700D0FE07000000A07C80
:1029E8000000F07F0000907CFFFFEF7FD21A1F2AC3
:1029F800A4EB020400F3C682012300259340984605
:102A080026443C440A9BA7421E443B46A8BF234693
:102A1800B342A8BF3346002B02DDE41AF61AFF1AA8
:102A28000C9B002B00F35482002C00F36A820B9B52
:102A3800002B00F39D82002E00F38E82002F08DD0C
:102A480051463A4658465FF0CFF88246002800F0D3
:102A58008C824A461A9958465FF05AF9089000281D
:102A680000F08382089A0023D168D3600D91514603
:102A78005FF02EF90028C0F2C584059F00F022847B
:102A8800514608985FF0D4FA00224FF0804304467C
:102A98000D46FDF795FF002800F00A820D9B002BDC
:102AA80040F07C82049B002B40F06183C7F3130342
:102AB800002B40F0E6820022AB4B20462946FDF76A
:102AC80075FF002840F0F5832046A84B29460022D0
:102AD800FDF7FAFC03460C460E90CDE9123401F1DD
:102AE80000430F93A24EA34B3E409E42DDE90E45A4
:102AF80000F05B820A9B23B3B6F1D46F21D8DDE9DD
:102B0800127897A3D3E9002338464146FDF758FFCA
:102B1800A0B141463846FEF70FFA012838BF012018
:102B2800FDF758FC0D9BCDE91201002B40F03783CF
:102B380001F1004316901793DDE9164505F1D663B8
:102B48009D1BDDE91078384641465FF091F9024651
:102B58000B4620462946FDF7B7FC3A464346FDF7A3
:102B6800FDFA0C46CDE90401814B2340B34203D161
:102B78000A9B002B00F08E821A9958465EF0F2FDEF
:102B8800494658465EF0EEFD514658465EF0EAFD6D
:102B9800089958465EF0E6FD159C584661685EF057
:102BA800BBFD8146002800F0E081226904F10C0198
:102BB8000C3002329200FEF7DFF91CAB5846019345
:102BC8001BAB0093DDE904341A46CDE910342346E3
:102BD8005FF0CEF91A90002800F09C810121584638
:102BE8005EF0C8FE8246002800F0BF811B9B002BC8
:102BF800C0F2AE810C9A149E9F180A9A1C9C9B1ACC
:102C08005D4A2344C4F13604013B9342FFF6EEAE1D
:102C1800012300259846F3E698F8013003F0DF0316
:102C2800582B00F0758243460133199393F800A09E
:102C3800BAF1300FF8D09846BAF1000F7AD00123D4
:102C48000A9383E5492B00F01C814E2B7FF4E5ADF8
:102C58004A4919A85EF0EEFB00283FF4DEAD199B47
:102C68001B78282B00F07E8345485FF0B3FA804636
:102C7800894663E0A4EB0A060B9B1E44002E3FF72F
:102C88002BAE3FF489AE764216F00F020AD03D4BC8
:102C980003EBC203DDE90401D3E90023FDF73EFDA0
:102CA800CDE9040136113FF477AE1F2E3FDC16F054
:102CB8001003354F4FF0000C18BF6A230A93DDE963
:102CC800042316F0010F1046194607D0D7E9002350
:102CD800FDF7FAFB4FF0010C02460B46761007F1A0
:102CE8000807EED1BCF1000F01D0CDE904230A9BFF
:102CF800A3B1DDE90401C1F30A52C2F16B03002B51
:102D08000ADD1F2B40F3FA830020342B049040F394
:102D180021844FF05C7305936A230A9300220023F1
:102D2800DDE90401FDF738FE00283FF437AE222321
:102D3800CBF800304FF000084FF00009079A0AB1AD
:102D4800199B1360099B002B3FF46EAD09F10043FA
:102D58004046994649461FB0BDE8F08FAFF3008062
:102D68000000C0FFFFFFDF410000F03F0000E03F30
:102D78000000F07F0000E07F02FCFFFFAC48080085
:102D88009C570800F8FE0700A8FE07004FF0010A4C
:102D980023F02002452A7FF42EAD44EA01030A9A63
:102DA80013433FF43AAD199E731C199373782B2B78
:102DB80000F023812D2B3FF403AD4FF0000E04E506
:102DC800002219960C9218E51C9A03F233430492D8
:102DD8001D9A22F4801242EA03530593210703D572
:102DE800059B43F000430593DDE90489A6E700232A
:102DF800099308F10103199398F801A0BAF1000F9B
:102E08003FF40BAD98469BE401230993F1E7163391
:102E1800FFF630AF0C9BA9EB0309B34B03EBC903D7
:102E2800DDE90401D3E90023FDF778FC80468946F3
:102E380084E7A3F1300C0B9B581C19905B78A3F125
:102E48003002092A00F2D18101300CEB8C0C199068
:102E580003EB4C0C0378ACF1300CA3F13002092AD7
:102E6800F2D90B9A801A082840F3BF8144F61F62F2
:102E78000C92BEF1000F3FF4C0AC0C9A52420C9277
:102E8800BBE49A4919A85EF0D5FA00283FF4C5AC0E
:102E9800199B19A89649013B19935EF0CBFA10B912
:102EA800199B013319934FF00008DFF8489245E762
:102EB800914B204629460022FDF706FB0D9BCDE9E4
:102EC8001201002B65D101F100430E900F9309E622
:102ED80051461A4658465EF02DFE8246002844D0D8
:102EE80001461A9A58465EF073FD00283DD00D90B1
:102EF80058461A995EF036FC0D9B002C1A937FF702
:102F080096AD22461A9958465EF06EFE1A90002831
:102F18007FF48DAD4F46054622234FF00008DFF8B9
:102F2800D491CBF80030294658465EF01BFC394650
:102F380058465EF017FC514658465EF013FC15994A
:102F480058465EF00FFC089958465EF00BFCF5E613
:102F5800149A0C9FD61A50E64946324658465EF0F7
:102F680043FE814600287FF469AD4F461A9DD3E79A
:102F78004946149A58465EF0DDFD814600287FF4E4
:102F88005AADF2E75D4AD31A012202FA03F59046D8
:102F980036E5DDE91234CDE90E34A3E50023584CBB
:102FA800CDE90E34CDE912349CE5A7F15473514FA5
:102FB8000593DDE90445204629465EF059FFDDE921
:102FC8000E23FDF781FA2B462246FDF7C7F84D4B35
:102FD8000F409F42CDE9040140F2DD8003F15473B4
:102FE800DDE91001994202D1B0F1FF3FBDD04FF0A9
:102FF800FF33454ACDE90432BEE54FF0000EFFF736
:10300800E1BB089940460B9255F0AAFD0B9A08902F
:1030180048B1002253461746924615461146914636
:1030280014460892B4E6199B981819909B5C302BAB
:1030380040F0278102461146013219921378302B4D
:10304800F9D0C0F101000144A3F13102082A10D8D7
:10305800DDF864800025A3F1300A01F1010901249B
:1030680040462F4605EB850500210AEB4505FFF78D
:10307800A3BB4FF000094FF0010A4C464F464D469E
:1030880086E60023214CCDE90E3400231C4CCDE903
:10309800123427E5DDE91256C4F3130728463146F2
:1030A800FEF79AFFFDF7E2F902460B46284631463D
:1030B800FDF752F8049D0D9E04462E430D463743F6
:1030C80043D107A3D3E90023FDF770FC00283FF4A0
:1030D80053AD4F461A9DDDE9048924E7AFF300801C
:1030E8009535A094FFFFCF3FF8FE0700A0480800E1
:1030F800A44808000000F07F0000E03FE2FBFFFF6B
:103108000000F03FFFFF9F7CFFFFEF7F0000F0BF54
:10311800099B19A90294584601931AABB04A009327
:103128001BAB5DF08BFE10F0070504463FF402AEC2
:10313800062D7BD1079A12B108F1010313604FF0F5
:1031480000084FF00009FFF76FBBA1A3D3E90023E4
:10315800FDF72CFC0028BCD1204629469EA3D3E9C4
:103168000023FDF741FC00283FF406ADB1E7049BBE
:10317800012B86D1002F84D14F461A9C2223254645
:103188004FF000084FF00009CBF80030CBE62223BF
:10319800CBF8003087E601F154740594E4E4DDE9E6
:1031A8001234CDE91634C7E4012900F0138204EB88
:1031B800010E0EF1FF3CCDF82CE003E04FEA4E057E
:1031C800A4450BD0082C05EB850E04F10104F5D9B4
:1031D80007EB8703102CD8BF5F00F1E7DDF82CE080
:1031E800082C894416DC74463CE744F61F62944573
:1031F800A8BF9446CDF830C03BE60B98794901EB5F
:10320800C001DDE90423D1E90001FDF75DF980463D
:10321800894693E5BEF1100F74464FF00001DCBFFC
:1032280007EB870702EB4707FFF7C6BA1A9A3AB1C6
:1032380035211CA85EF026FF58461A995EF092FACE
:10324800013D1B9B042D3FF6C9AD01A252F825F0A4
:10325800D12D0000813200007B3200006D32000069
:10326800D12D00004FF0FF336FF00040CDE904305E
:10327800B4E55D4B0593B1E51C9B04931D9B059339
:10328800ACE50899E0E6C4F10F04564D05EBC4011E
:10329800DDE90423D1E90001FDF716F90B9B1C1B9E
:1032A80005EBC405D5E90023FDF70EF980468946EC
:1032B80044E500234D4CCDE90E3400234C4CCDE9B8
:1032C80012340FE43B460D98C4464F46AE46494972
:1032D800C3F31302DDE9108900285BD08A4200F0AD
:1032E800FB80B5BB049A1CEA020F35D0404649461C
:1032F80004935EF0BDFD0A9B04460D46002B00F0CA
:103308001F81049BC3F30A53C3F16B06002E40F3DD
:103318006481394C002204EB0653FDF7D5F80246C8
:103328000B4640464946FCF719FF1A9C80468946D9
:1033380040464946314B0022FDF7C6F80B46254664
:103348008046034389467FF4EEAD2223CBF8003054
:10335800E9E51EEA030FC9D11A9C0A9B2546002BF2
:10336800E6D1E0E519A81CAA25495EF07DF80528F4
:103378007FF47AAC1D9B43F0FF4343F4E0030593CD
:103388001C9B0493DDE90489D8E402F15473059386
:10339800FFF702BB002A71D1DDE904452246002C63
:1033A80040F0B4800A9A002A40F0F08025F00044EA
:1033B800240D2405A4F580141A9D6FEA14536FEAAE
:1033C800035305934FF0FF330493DDE90489AAE51D
:1033D8009535A094FFFFDF3F35E5AF350000E03FAE
:1033E800C4480800F8FE07000000F07F0000E0BFB6
:1033F8000000E03FFFFF0F000000F03F00005039E1
:10340800B04808000D9B4F46DDE90401DDE910894D
:103418000343A1D1C1F31303002B9DD121F0004434
:10342800240D2405B4F1D66F264695D9089A536918
:1034380013B91369012B8FDD0899012258465EF0F4
:10344800D3FB514608905EF043FC002884DD0A9BBC
:10345800002BAFD0A6F580131A9C6FEA13536FEABE
:10346800035305934FF0FF330493DDE904895FE7C5
:103478004FF0000ADFF87CE1FFF770BA002D48D161
:10348800049A1CEA020F3FF467AF4046494604938A
:103498005EF0EEFC0A9B002B40D0049BC3F30A535A
:1034A800C3F16B06002E40F3A280534C002204EBBC
:1034B8000653FDF709F802460B4640464946FCF715
:1034C8004BFE0022002380468946FDF765FA002856
:1034D8007FF453AE1A9C2BE7DDE904010A9A0446EF
:1034E800002A40D1024601326DD0BEF1000F7FF4B0
:1034F80030AF14EA0C0F3FF42FAFF7E64FF0FF326E
:1035080002FA03F3049A1A40049205E4BEF1000F8C
:10351800B7D01EEA030F3FF41FAFB6E702460B46CB
:1035280040464946FCF718FE1A9C002200238046B4
:1035380089462546FDF730FA00283FF4F4AC1DE62D
:10354800404649462B462246FCF708FE1A9D80460F
:103558008946E8E4C2F14B024FF0FF3393400B4039
:103568000593FFF7D9BB254A1A40B2F1D46F21D988
:10357800611CBAD122498B423FF4F8AC02F58013A2
:10358800059300230493DDE90489E5E61B4E1E40FC
:10359800B6F1D66F3FF65EAF1A9DB6F15C7F2C464A
:1035A8003FF6C6AE22234FF000084FF00009CBF8D3
:1035B8000030B8E4100D4FF0FF31C0F16B008140CE
:1035C8008C4292D1DAE70E4A93423FF4CFAC0132F3
:1035D8001A40D3E704F1010E02E640464946224666
:1035E8002B46FCF7BBFD1A9C80468946A0E602469E
:1035F8000B4662E7D0FE07000000F03F0000F07FB6
:10360800FFFFEF7F000000002DE9F04F016C9BB039
:1036180016461F46279D0490CDE9026749B1426CC2
:103628000123044693404A608B605EF09BF80023B8
:103638002364B7F10009C0F2B68000232B607E4BEB
:1036480033EA090300F0BA800022DDE902341846A3
:1036580021460023CDE90801FDF79EF9804668B1AF
:103668000123269A1360289B13B1744B289A136080
:10367800DFF8CC8140461BB0BDE8F08F18AB04984A
:10368800019319AB0093DDE908235EF071FC8346D2
:103698005FEA195540F0A980DDE91885454405F22F
:1036A8003243202B40F34D82C3F1400309FA03F95A
:1036B80005F2124326FA03F349EA0300FCF78AFEEF
:1036C800013D0123A1F1F871109300225D4BFCF735
:1036D80043FD53A3D3E90023FCF7F6FE52A3D3E935
:1036E8000023FCF73BFD06460F462846FCF782FE02
:1036F8004FA3D3E90023FCF7E7FE02460B4630460A
:103708003946FCF72BFD06460F46FDF79FFD0022C4
:103718008246002330463946FDF748F9002840F034
:103728000382A8EB0508BAF1160F08F1FF330693D8
:1037380000F2A781444E06EBCA06DDE90801D6E986
:103748000023FDF733F9002800F0848000230AF1F4
:10375800FF3A0F9308F1FF33002BC0F29981002341
:103768000A93BAF1000F7BDA0A9BCDF82CA0A3EBE1
:103778000A030A93CAF100034FF0000A0E93249B30
:10378800092B77D8052B40F3E181043B00272493CC
:10379800249B023B032B00F25986DFE813F0540404
:1037A800510447042C04012329F000492B60224BC3
:1037B800CDF80C9033EA09037FF446AFC9F3130937
:1037C80042F20F73269A59EA060913601DD0289B06
:1037D800DFF87880002B3FF44DAF08F10303289AF7
:1037E800404613601BB0BDE8F08FDDE90812CDF844
:1037F8004080A5F2FF35C2F313030846DDF8608068
:1038080043F07F5141F440115FE7289BDFF8408087
:10381800002B3FF42FAF08F10803E0E7AFF3008077
:1038280061436F63A787D23FB3C8608B288AC63FBE
:10383800FB799F501344D33F0000F07F19490800DB
:10384800184908000000F83FF8FE0700D8490800AA
:10385800CC490800B8F1000F40F3B1840F900A90EA
:10386800069BCDF82CA05344069300230E93249B6B
:10387800092B87D900230127CDE924334FF0FF33E3
:103888000C970793049B00215964079B1193049894
:103898005DF042FF0590002800F0E185079B0E2BA4
:1038A8008CBF002707F00107DDE904321A64002FF6
:1038B80000F01B810B9A002A40F34A81BC4E02F0AB
:1038C8000F03D4054FEA221806EBC303D3E90067B8
:1038D80040F17083B74B08F00F080325D3E908239C
:1038E800DDE90801FCF71AFFCDE91201B8F1000F74
:1038F80012D0DFF8C09218F0010F08D030463946D0
:103908000135D9E90023FCF7DFFD06460F465FEADB
:10391800680809F10809EED132463B46DDE9120193
:10392800FCF7FCFE804689460F9B43B10022A24B60
:1039380040464946FDF73AF8002840F047842846B3
:10394800FCF758FD42464B46FCF7BEFD9B4B002258
:10395800FCF704FC079B0646A1F15077002B00F00A
:10396800AB80079B0B9C1293059B404612995D1CEC
:10397800CDE914678E4E06EBC10353E90212CDE977
:1039880016124946FDF762FC00F13007FCF732FDDC
:1039980002460B4640464946FFB2FCF7DDFB894626
:1039A8000C998046DDE91623002900F00F810020DC
:1039B8008349FCF7B3FEDDE91423FCF7CDFB059E34
:1039C80042464B46377006460F46FDF70DF800286D
:1039D80040F02F850023CDF858A0CDF850B09A4676
:1039E800DDF848B012942BE00AF1010ADA4580F2BA
:1039F800BD84304639460022724BFCF765FD002233
:103A0800704B06460F4640464946FCF75DFD894621
:103A18008046FDF71BFC0446FCF7ECFC02460B460F
:103A2800303440464946FCF797FB32463B4605F89A
:103A3800014B80468946FCF7B9FF002840F09C847A
:103A480042464B4600205C49FCF786FB32463B4623
:103A5800FCF7ACFF0028C7D0DDF850B02F46129C09
:103A6800059902E08F4200F05F843A4617F8013D5D
:103A7800392BF7D00133DBB23B70DDF814800592A7
:103A88006BE101230F9308F1FF33002BBFF667AEFC
:103A9800C8F101030A930023069362E62846FCF75F
:103AA800A9FC42464B46FCF70FFD0022434BFCF7AE
:103AB80055FB0646A1F15077404649460022424B45
:103AC800FCF74AFB32463B4680468946FCF78CFFAA
:103AD800002840F0AD8340464946324607F100438E
:103AE800FCF764FF002840F0D5810B9A199B0E2A39
:103AF80002DC002B80F2AD810C9A002A00F0B58020
:103B0800249A012A40F38583079A0E9B551EAB42DF
:103B1800C0F2C782002AA3EB050580F25B840A9BEA
:103B2800079AA3EB0208C9E25046FCF763FC324649
:103B38003B46FCF731FF00287FF4F3AD0AF1FF3A6A
:103B4800EFE5C3F1200306FA03F0B7E501271FE606
:103B580000F0A3820B9B164E5D4205F00F0306EBA7
:103B6800C303DDE90801D3E90023FCF7ADFC2E11FE
:103B7800CDE9120100F052840E4C00230225804644
:103B88008946F00709D5404649460135D4E900235E
:103B9800FCF79AFC3B4680468946761004F10804F7
:103BA800EFD1002B7FF4C0AEDDE91289BCE600BF7F
:103BB800F8FE0700D0FE07000000F03F00001C40A0
:103BC8000000E03F0000244000001440DDE914013B
:103BD800FCF77AFC059B1F70129B012BCDE90C01A9
:103BE80000F00984129F059BCDF840A01F440022D5
:103BF800AA4B40464946FCF767FC89468046FDF7D4
:103C080025FB8246FCF7F6FB02460B460AF1300A12
:103C180040464946FCF7A0FA05F801ABAF4280469A
:103C28008946E4D1DDF840A000229D4BDDE90C0176
:103C3800FCF794FA42464B46FCF7B8FE002840F0E1
:103C48007B8300209649DDE90C23FCF785FA424680
:103C58004B46FCF7C9FE002840F01982199B002B3F
:103C680003DB0B9B0E2B40F3F58000230E9DDDF844
:103C780028801E460C93B8F1000F0DDD0699002927
:103C88000B4609DD41450A9AA8BF4346D21AA8EB5C
:103C98000308CB1A0A9206930E9B53B10C9B13B1DF
:103CA800002D40F01E8259460E9A04985DF042FF9E
:103CB8008346012104985DF05DFE0746BAF1000FC6
:103CC80040F06381249B012B40F37A8101230699FC
:103CD8000B4413F01F0308D0C3F12002042A00F399
:103CE800B5810AD0C3F13C0300E01C230A9A98442A
:103CF8001A440A92069A1A4406920A9B002B05DD7A
:103D080059461A4604985DF06FFF8346069B002BC0
:103D180005DD39461A4604985DF066FF0746249B80
:103D2800022B0F9BD4BF00250125002B40F0BE803D
:103D3800079B002B24DC1DB3079B002B00F08F8111
:103D4800259BDDF81480DC43394604985DF00AFDB4
:103D58001EB1314604985DF005FD594604985DF0A2
:103D680001FD00220599631C0A70269A1360289B9E
:103D7800002B3FF47FAC404619601BB0BDE8F08FC4
:103D88000C9B002B00F0AF80B8F1000F00F3C0814E
:103D9800BAF1000F40F0D382B146059D079C6B1E17
:103DA8001C44029B089403F00103049C0A933946BF
:103DB80058465CF07FFD3146824658465DF088FFE4
:103DC8004A463946804620465DF0A2FFC268014651
:103DD8000AF13003002A40F0A281CDE906035846D3
:103DE8005DF076FF0699069020465DF0BBFC249BAB
:103DF800069A52EA0301079B40F0C2810A9A002AF8
:103E080000F0F282B8F1000FC0F2AD81089AA8461E
:103E1800AA4208F8013B00F0D282594600230A2240
:103E280020465DF0A9FC4E45834631464FF000031D
:103E38004FF00A02204600F09D815DF09DFC494646
:103E4800064600230A2220465DF096FC4546814638
:103E5800ADE7144E0B9B06EBC306D6E90034CDE95B
:103E68000234259B002B80F2E881079B002B00F38E
:103E7800E481079B73B900220B4BDDE90201FCF7D3
:103E880023FB02460B46DDE90801FCF799FD0028F3
:103E980000F0CE8100273E4652E700BF00002440D4
:103EA8000000E03FF8FE070000001440394658467D
:103EB8005DF00EFF0028BFF63BAF0B9B59460A2268
:103EC8000498013B0B9300235DF056FC0C9B834642
:103ED800002B40F09282119B002B119B079302DC70
:103EE800002D7FF429AFDDF814800125079CDDF84B
:103EF800109007E0594600230A2248465DF03CFC32
:103F080001358346394658465CF0D4FCA54200F199
:103F1800300308F8013BEDDB079A0025002ACCBFE7
:103F280090464FF00108059A90445946012204989A
:103F380002935DF059FE394683465DF0C9FE0028BC
:103F480040F3E481059A02E0904500F0D48118F826
:103F5800013CC24608F1FF38392BF5D001330B9CE0
:103F680088F80030394604985DF0FCFB002E00F01C
:103F7800C8812DB1B54203D0294604985DF0F2FB03
:103F8800DDF81480CDF814A0E3E601465246049803
:103F98005DF0D0FD249B0746012B40F395804FF040
:103FA800000A3B6907EB830318695DF08FFCC0F1D9
:103FB80020038CE6DDE908340225CDE9123495E4C6
:103FC800029B002B7FF482AEDDE90212C2F31303D9
:103FD800002B7FF47BAEAD4B134033B10A9B01330A
:103FE8000A93069B013306930123BAF1000F40F0B0
:103FF800F9819A466AE601230C93259B0B9A134490
:1040080011930133012B1D460793B8BF0125172DC6
:1040180040F31382012204235B001146013203F1AD
:104028001400A842F8D9049B596430E401230C9386
:10403800259B002B40F3BE801D4611930793E6E7AE
:1040480000230C93D9E700230C93F1E7C3F11C0379
:104058000A9A19441A4498440A9206914DE6394638
:10406800052204985DF088FB0746584639465DF0FE
:104078002FFE00287FF764AEDDF81480059B0B9CAB
:10408800013301340593312388F800305CE63A4661
:1040980017F8013D302BFAD0EFE40225DDE9088955
:1040A80042E40E9B0E95EB1A00259A44DDE9063290
:1040B800134406930A9B984613440A9301210498D3
:1040C8005DF058FC0646D6E5029B002B7FF467AFEF
:1040D800DDE90201C1F313030A46002B3FF47BAF6D
:1040E8005DE7049C31462A4620465DF023FD0646DE
:1040F8005A46204631465DF06BFC594683462046B9
:104108005DF030FB0E9B5B1B0E933FF4D2ADCAE50E
:104118003146424604985DF067FD064638E6049845
:1041280006935DF01FFBB8F1000F069B08DB029AAF
:10413800249902F0010248EA010852EA08022ED145
:1041480059460122049802935DF04EFD3946834694
:104158005DF0BEFD0028029B40F36581392B00F01D
:1041680031810AF13103AA460B9C35464E460AF8BE
:10417800013BF7E65DF000FB45460646814616E63C
:10418800B8F1000FC0F25E81249948EA01080A9943
:1041980051EA080800F05681002A7FF737AE392B1C
:1041A80000F01081AA46013335460B9C4E460AF8AA
:1041B800013BD7E6012325930793FFF763BBC8F1BB
:1041C800010306900F900A93FFF74ABB079B002B49
:1041D8003FF464AC119B002B7FF787AC0B9A4046E9
:1041E80049461293541E2A4B0022FCF76DF980466B
:1041F8008946681CFCF7FEF842464B46FCF764F912
:104208000022244BFBF7AAFF0646A1F15077FFF7DF
:10421800ABBB109A002A00F08B8003F23343069A56
:104228000E9D1A4406920A9A90461A440A9245E745
:104238000027DDF814803E4620E7DDE90889DDE93E
:10424800022340464946FCF769FA059FFCF7FEFF42
:104258000546FCF7CFF8DDE90223FCF735F90B46F4
:10426800024649464046FBF777FF05F1300307F859
:10427800013B079B012B00F08980CDF818B001267F
:10428800DDF81C90DDE902AB22E000BF0000F07F02
:104298000000244000001C4052465B462046294648
:1042A800FCF73CFA0136FCF7D1FF8046FCF7A2F890
:1042B80052465B46FCF708F90B460246294620465B
:1042C800FBF74AFF08F13003B14507F8013B5AD024
:1042D8000022704BFCF7F8F80022002304460D4634
:1042E800FCF75AFB0028D7D0DDF818B0DDF81480A9
:1042F8000B9C059731E50B9C3123059A013413700B
:1043080030E6DDF81480CDF814A026E503D1029B31
:10431800DB073FF517AE18F8013CC24608F1FF3835
:10432800302BF8D00B9C1DE601343123FFF7A4BBDA
:10433800189BC3F1360372E70599FFF796BB7168BE
:1043480004985DF0E9F90546002800F08F8033698C
:1043580006F10C010C3002339A00FCF70DFE2946D9
:10436800012204985DF040FC814616E5DDF858A06E
:10437800DDF850B0FFF7B9BBDDF81480DDF850B0B8
:10438800129C0595E9E4DDF818B0454602460B464F
:10439800FBF7E4FE80468946DDE90223FCF724FBAF
:1043A80048B940464946DDE90223FCF7F5FA0028FA
:1043B8009CD0E9079AD50B9C0599FFF756BB354663
:1043C8004E46B2E5A84639233546059A4E4608F8C2
:1043D800013BBCE5069B134406930A9B984613448D
:1043E8000A936BE69A46DCE5392BEBD0B8F1000F5F
:1043F8003FF7B7AEB7E62F4616E4314600230A2248
:1044080004985DF0B9F9119B0646002B119B0793A0
:104418003FF7BAAC002D7FF48FACB5E4DDE9128923
:104428000225FFF781BA7FF49EAEDA077FF59BAECF
:1044380094E6DDF8148005958FE40021049B596407
:10444800FFF725BA002A3FF77BAE8CE6049B0025D0
:10445800184629465D645DF05FF9059068B90E4B12
:1044680000224FF4D5710D4851F0FAFC02460A4B70
:1044780040F2EA21094851F0F3FCDDE904322595C0
:104488001A644FF0FF33012211930C920793FFF740
:104498002CBB00BF00002440DC490800F04908009C
:1044A8002DE9F04F84468E4687B0002942D032A3CA
:1044B800D3E9002332A7D7E9006733A5D5E900453A
:1044C8000FF2CC0BDBE900AB33A1D1E90001CDE958
:1044D800042333A3D3E90023CDE9022332A3D3E98C
:1044E8000023CDE9002332A3D3E900234FF00008CD
:1044F8004FF00009CCE90A01DDE90401CCE90C011F
:10450800DDE90201CCE90E01DDE90001CCE9100189
:104518000020CCE90089CCE90289CCE90467CCE920
:104528000645CCE908ABCCE91223CCF8D0E007B0BB
:10453800BDE8F08F20A3D3E9002321A7D7E90067BE
:10454800CDE9042320A5D5E9004521A3D3E900231B
:104558000FF2840BDBE900ABCDE9022320A1D1E9FE
:10456800000121A3D3E90023CDE9002320A3D3E947
:104578000023BBE7AFF30080310BC0FF672633672A
:10458800D89E05C15D9DBBCB07D57C362A299A628A
:1045980017DD70305A01599139590EF7D8EC2F159B
:1045A80011155868874AB48EA78FF9640D2E0CDB55
:1045B800A44FFABE1D48B547D182E6AD7F520E51D1
:1045C80008C9BCF367E6096A3BA7CA8485AE67BB1E
:1045D8001F6C3E2B8C68059B2BF894FE72F36E3C87
:1045E800F1361D5F3AF54FA56BBD41FBABD9831F73
:1045F80079217E1319CDE05B08B5002101204EF02A
:104608003FFD054B05491A68054B0648B2FBF3F216
:10461800BDE8084064F079BF982400209E5908003E
:1046280040420F00B759080038B511680B481446C6
:1046380053F09AF80A4B1D6835B90A4853F094F8B4
:104648002846094966F0DEF9606808490DF09EFFC2
:10465800BDE8384005480DF025BF00BFDF59080008
:10466800185B0020E95908001F5A080090850020AF
:1046780038B50D4614461168044853F075F82146BC
:104688002846BDE838400EF063B800BFDF5908007F
:1046980010B50F48116853F067F811220221012064
:1046A80012F01CFF002811DA0A4C0B4A20680B494B
:1046B8001D23C06851F020FF2368DC6867F0A4FF61
:1046C80007490268204651F017FF012010BD00BFBE
:1046D800DF5908002C250020BF5A0800F35A0800AB
:1046E800075B080037B50D4611220221012012F0A0
:1046F800F5FE041E14DA134C134A206813496D237F
:10470800C06851F0F9FE2368DC6867F07DFF104946
:104718000268204651F0F0FE0124204603B030BD67
:104728000821684651F0C6FB0123ADF8003000238C
:104738006DBA0193ADF8025008226946204667F029
:1047480080F9EAE72C250020535B0800F35A08009B
:10475800075B0800F8B50E4614468AB1094853F0BD
:1047680003F80025084FA54204DB084852F0FCFF77
:104778002046F8BD715D384652F0F6FF0135F2E784
:104788000124F5E7C95B080013FF0900E15B080095
:104798000823024604480168914204D0013B00F115
:1047A8009800F8D118467047202F0020002382B0C7
:1047B8000193094B019A072A01DD002004E01A68D9
:1047C800824203D103F11C0002B07047019A98336A
:1047D80001320192EEE700BF202F00202DE9F04FB3
:1047E800304E9A46304B35681B8801359B070C467E
:1047F800174687B0356005D52C4B2D491B6898683E
:1048080051F07AFEA36A0BB96423A3620021E06A1F
:10481800FCF7D8FA10B14FF07E53E362D4F82C803D
:104828004FF07E504146FCF7EDF9236B83460BB9F8
:104838001E2323634046FBF7EFFD236B804603935B
:104848003368584689460293FBF7E6FD4B46CDE9A7
:1048580000014246174852F087FF636B23B1012BD2
:104868000ED00222144B08E0236B3268204605A9BB
:10487800059303F05FFA04220F4BC3E9002502E019
:104888000E4852F071FF53464FF402710A4A022053
:1048980064F08BFC4FF4037300203B6007B0BDE865
:1048A800F08F00BF98570020242700202C250020D7
:1048B800F85B0800155C0800E82C0020475C08003D
:1048C8002DE9F0470D461F460423DFF888800C4683
:1048D8000146214855F801991646C8F8003052F0AB
:1048E80043FFDFF878A0073415F8011F504652F04F
:1048F8003BFFAC42F8D14946194852F035FF1949F7
:104908000B684B4520D1184A13684B451CD100232E
:104918001360164A48460B601360FFF739FF10B959
:104928000223C8F80030D0E91C23C8E902233B461B
:104938004FF40271074A032064F037FC4FF4037305
:1049480033600020BDE8F0874946024803F01EFAAC
:10495800EDE700BFE82C0020615C08008E5C0800D1
:10496800935C0800C8570020C4570020C057002097
:104978002DE9F84F254F1D463B688346082B89468D
:1049880014460BD100233B60214852F0EDFE4FF452
:10499800986200211F4852F069FE01E0002BF3D015
:1049A8001D4B1B889B0705D51C4B1D491B68986828
:1049B80051F0A2FD98223E68DFF85880731C3B60D6
:1049C80002FB06F707EB080A0021504652F04EFE9C
:1049D80007F11C005A4649464044FCF7CDFA04202A
:1049E800104B114A19680131196048F807102B4615
:1049F800CAF80860C2E900014FF4027164F0D5FBFF
:104A08004FF4037323600120BDE8F88F905700200E
:104A1800A85C0800202F0020242700202C25002037
:104A2800C05C080098570020E82C00202DE9F04FC2
:104A380085B00193042303933D4B041E1B88B8BF24
:104A480003349B07894690464FEAA40405D5394BA1
:104A580039491B68986851F04FFD0027374DA74228
:104A680010DB40F2F3123649364852F07DFE019BC6
:104A78000421062003AA64F098FB08230020C8F844
:104A8800003007E059F827603046FFF781FE82467C
:104A980018B9022005B0BDE8F08FC26C3AB141F2F6
:104AA80087318A42D6BF284B002293FBF2F2CAF81C
:104AB8001020DAF82020022AEBD1282200210AF15E
:104AC800700052F0D3FD0122DAF81C30CAF8182021
:104AD800032B26DC002B22DD4FF0480B28681B4BEC
:104AE8000BFB00F0DFF868A01E604AF80060203079
:104AF800504467F0A2FD28680BFB00A0103067F057
:104B080085FD29680BFB01A0203015F09BF9324682
:104B18002968104852F028FE2B6801332B600137B2
:104B28009DE7043B012BFAD80B4B1E60D4E700BF6E
:104B3800242700202C250020D75C0800CC57002013
:104B48007F620800165D080040420F00C057002031
:104B5800D8570020ED5C0800C85700202DE9F04F19
:104B6800994604230646ADF5077D03935A4B002862
:104B78001B88B8BFC61C90469A0701914FEAA60643
:104B880006D5564B02461B685549986851F0B4FC47
:104B98004FF4806052F08AF9074608B3514D2C68EB
:104BA8007CBB4FF480622146384652F05FFDA24636
:104BB8002546B24529DB00234B48AB6152F0D4FDB2
:104BC80004EB8411C9004B463A46072089B264F0C9
:104BD800ECFA4FF402735E430436C8F800603EE016
:104BE8003E4C4FF404732068404A4149C06851F074
:104BF80083FC23683F49D86851F07EFC012051F0BE
:104C080095F9012067F0BEFDC9E7019B53F82AB06A
:104C18005846FFF7BDFD054680B9022304210393DA
:104C280007204B4603AA64F0C0FA08233248C8F8A4
:104C3800003052F099FD0AF1010ABAE7036A022B23
:104C480012D002230421039307204B4603AA64F0E1
:104C5800ACFA08233846C8F8003052F02FF9002083
:104C68000DF5077DBDE8F08FC369032B2CDC002B05
:104C780010DD0023214A1360214BAA6853F8220053
:104C8800431C07D00EF052FA4FF0FF31AA681C4BB4
:104C980043F8221004230DF1180CCDE9043B05F16B
:104CA800980E05F17003624618685968083303C204
:104CB80073459446F7D14FF4027204A902FB0A70B7
:104CC800FCF75AF90134B6E7043B012BE2D800227D
:104CD8000C4B1A60CDE700BF242700202C250020AC
:104CE800475D0800AC570020D95D08006B5D0800DF
:104CF800F35A08009F5D0800C55D0800C0570020F2
:104D080080190020C85700202DE9F04F9A46504BD3
:104D1800051E1B88B8BF0335ADF21C4D9B07904696
:104D280003914FEAA50506D54A4B2A461B684A490E
:104D3800986851F0E1FB4FF00009A94512DA039B8E
:104D480053F829703846FFF723FD044678B9022343
:104D5800042184930520534684AA64F026FA082384
:104D6800C8F8003000200DF21C4DBDE8F08FD0F8D7
:104D780020B0BBF1010FEAD100F170062822002112
:104D8800304652F073FCE369C4F818B0013B052BB8
:104D980028D8DFE803F003030703052A2F4B1F6019
:104DA8002F4B1F604FF0480B2E4E2F4B30682F4C67
:104DB8000BFB00F01F6027502030204467F03DFCBB
:104DC80030680BFB0040103067F020FC32680BFBAA
:104DD8000240203015F036F8336801333360002381
:104DE800C8F8003009F10109A7E704F16403019349
:104DF80014234FF40072009300211D4B04A853F0B4
:104E0800CDFA04A857F006FC10B11A4852F0ACFCD1
:104E18000423CDE984370A2342F210722367002362
:104E2800C4E91E2386AA06F128041346306871686F
:104E3800083603C3A6421A46F7D153464FF4027107
:104E4800052084AA64F0B1F94FF40373C8E700BFE2
:104E5800242700202C250020025E0800C8570020C7
:104E6800D4570020CC570020C4570020D857002022
:104E78002B5E0800455E08002DE9F0411A4C1646E5
:104E880020681F46421C04D00EF050F94FF0FF3343
:104E9800236000254FF0FF38144C54F8040B431CD2
:104EA80003D00EF043F944F8048C0135082DF4D1F1
:104EB800002404210E4B0F4A1C600F4B28461C602F
:104EC8000E4B1C600E4B1C600E4B1C700E4B1C6076
:104ED8000E4BC3E900443B46116064F066F9356047
:104EE8002046BDE8F08100BFC806002080190020D8
:104EF800C0570020E82C0020C4570020C8570020C5
:104F0800D05700209087002090570020202F0020A5
:104F180010B5144600220228226011D020F00200A9
:104F2800012824D1312916DD322291FBF2F21849E9
:104F3800184821601A602168BDE8104052F014BC7E
:104F4800A1F13202B2F5E17F114A226036BF322266
:104F580019601A6010BD09B9C822E8E74A1E312A4B
:104F6800F8D818600C4B93FBF1F32360F2E70B4C75
:104F780040F2A13320680A490A4AC06851F0BCFAD5
:104F880023680949D868BDE8104051F0B5BA00BF98
:104F9800A0860100585E080040420F002C25002022
:104FA800F35A08006B5D08007C5E080010B50446E3
:104FB80088B0002104A867F0D3FB069BE018114BCA
:104FC800984212DC06900F4C0021684667F0C8FB37
:104FD800049B029A63439B1A069A1344009A04FBA3
:104FE8001233002BF0DC08B010BD049B059A013386
:104FF800A0F57420A0F5107042F10002CDE904324A
:105008000690E0E740420F002DE9F04F0C460021E2
:10501800ADF51F7D079014A8CDE90523CDE908114A
:1050280067F09EFBAE4B1B88990706D5AD4B224611
:105038001B68AD49986851F05FFA2046FFF7A8FB56
:105048000446002800F04781436D0125581C03934E
:1050580051F02CFF064600270021039A52F006FB68
:105068001422A249304653F0BDFD04F1240128461C
:105078000BAACDF82A70ADF82E70ADF8285064F060
:1050880075F8A38E216D5BBAADF82A30002900F0BF
:1050980017819748DFF85CB252F066FBE16CE06973
:1050A80009AB08AAFFF734FFDDF82090DBF80020F1
:1050B800DFF84482A9EB0202BA42D8BF4A46494601
:1050C8008E4852F051FBC8F80050D8F80030002B39
:1050D80000F0C5807D1C284606F1080164F0AFF891
:1050E800012D56D004972F46099B3BB395FBF3FA45
:1050F80003FB1A5ABAF1000F20D1514610A867F0E5
:105108002FFB0CA910A80CF0ABFCDBF80030834295
:105118000ADAC01A67F04CFB514610A867F020FB6A
:105128000CA910A80CF09CFC002801DDFFF73EFF3D
:105138000E9B734A4B44934247DC0E93002118A8F8
:1051480067F00EFB189806F10C0164F078F81A98CD
:1051580006F1100164F073F8039A314607980AAB18
:1051680063F0F0FF421C3DD0D4E91E321B1842EB1D
:10517800E072C4E91E32236F01332367D8F8003088
:10518800002B6CD00135284606F1080164F057F869
:10519800A8E700210CA867F0E3FA0E9B584A4B4495
:1051A800934202DC00270E939CE7A3F57423A3F532
:1051B80010730E93DDE90C32013342F10002CDE9A0
:1051C8000C3200232F4604938EE7A3F57423A3F52E
:1051D80010730E93DDE90C32013342F10002CDE980
:1051E8000C32ABE767F010FA0368682B34D01ADC8E
:1051F8000B2B1AD0202B2FD0DFF8E8A0414814F051
:105208006BFDDAF8000040F26D433F4A3F49C06841
:1052180051F072F9DAF800303D49D86851F06CF96C
:10522800354B1B68ACE7692BE6D12E4D364A28680A
:105238004FF48C633549C06851F05EF92B683549E5
:10524800D86851F059F94FF47A7067F0B1FA236FC2
:10525800049F013B236738E70023C8F80030002289
:105268002D4B30461A6051F029FE04231C93234627
:1052780053F8702B1EAD1D9204F198062A46186843
:105288005968083303C2B3421546F7D1144B1B883B
:105298009B070BD5134B21491868D4E91E23CDE988
:1052A8000023236F2268806851F026F9059B4FF48C
:1052B800027105201CAA63F078FF4FF4037308E01D
:1052C800022304211C930520059B1CAA63F06DFF93
:1052D8000823069A136001200DF51F7DBDE8F08FA5
:1052E800242700202C2500208F5E0800A95E0800D6
:1052F800B15E08009C570020D0570020BE5E080011
:1053080040420F00EB5E08006B5D0800F35A08008E
:10531800F45E0800DF5E0800C4570020075F08003D
:105328002DE9F0410C46411C064617461D46ADF5D1
:10533800047D2AD100235A4A5A4813605A4A1360F6
:105348005A4A136052F010FA2046FFF721FAD0B1FA
:10535800042300F17002CDE9023404AD00F1980392
:105368002C4610685168083203C49A422546F7D182
:105378008A9B02AA4FF40271052063F016FF4FF4CE
:1053880003728B9B1A6001204BE02046FFF700FA5E
:1053980004460028F7D005B9456D0023012004F123
:1053A8003808414603AACDF80A30ADF80E30ADF8FA
:1053B800080063F0DBFEB4F848305BBAADF80A3099
:1053C800394B1B688BB3364B1B6873B34146BDF82A
:1053D800080003AA63F0CAFEB4F848305BBAADF817
:1053E8000A30206F07F1080163F029FF2A46394681
:1053F800304602AB63F0A6FE421C27D0236F013370
:105408002367D4E91E321B1842EBE072C4E91E324E
:10541800274A136801331360264B1B889B0732D435
:1054280000200DF5047DBDE8F081204B1B68002BA2
:10543800D7D01B4B1B68002BD3D0BDF8080003AA9C
:1054480004F1240163F092FEA38EC7E767F0DCF84D
:1054580003680B2B01D0692BDAD1174D174A28683E
:1054680040F2F1431649C06851F046F82B681549D7
:10547800D86851F041F84FF47A7067F099F9236FC2
:10548800013B2367C4E70C4B0F491868D4E91E2376
:10549800CDE90023236F2268806851F02DF8BFE71B
:1054A800C85700203B5F0800C0570020C4570020A1
:1054B80094570020242700202C2500206B5D08002D
:1054C800F35A0800DF5E08004F5F0800F7B506468C
:1054D80008461546FFF75CF9044620B94FF0FF3639
:1054E800304603B0F0BD40F2BE520021284652F0CB
:1054F800BDF80023012004F12407394601AACDF89C
:105508000230ADF80630ADF8000063F02FFEA38E30
:105518005BBAADF80230224B1B688BB3214B1B687A
:1055280073B3BDF8000001AA04F1380163F01EFE50
:10553800B4F848305BBAADF8023030466A462946BE
:1055480063F009FE431C0646C8D0636F0835013373
:105558006367D4E920321B1842F10002C4E9203203
:10556800284663F077FEE3680138C01AD4F88C3017
:105578000344C4F88C30284663F06CFEE060AFE763
:10558800094B1B68002BD8D0064B1B68002BD4D0C6
:105598003946BDF8000001AA63F0E8FDA38EC9E70B
:1055A800C0570020C8570020C45700202DE9F04FED
:1055B800ADF5297D0F900846CDE91023FFF7F6F8E1
:1055C800054608460E46FFF7E3F8994C0746238838
:1055D800990740F1D481974B97491B68986850F018
:1055E8008BFF0F9B002B10DA23889A0723D4022302
:1055F80026AA26930421109B052063F0D6FD0823D4
:10560800119A4FF0010A1360DAE0002EECDB109BD0
:10561800002BE9D0119B002BE6D005B1C7B9238830
:105628009B07E4D5834B2A4618683B468349806824
:1056380050F062FFDBE77F4B0F9A1868119B804997
:105648000193109B00938068334650F055FFCEE7D6
:105658002A6B0AB16B6B3BB923889F07C7D5754B7B
:10566800784918686B6BE2E740F6AC539A4203DC62
:10567800AB6BB3F57A7F08DD23889E0705D56D4BA4
:1056880071491B68986850F037FFAB6B2A6B12930F
:105698005A43D200B2F1C87F09DD23889C07A6D5FA
:1056A800644B6A491B68986850F026FF9FE7129B75
:1056B8001E1D304651F0FAFB0C9048B92388980714
:1056C80095D55C4B62491B68986850F015FF8EE7CA
:1056D800012432460026002151F0C8FF14225D49FA
:1056E8000C9853F07FFA204619AA05F10801ADF885
:1056F8006040CDF86260ADF8666063F037FD2B8BD3
:10570800B0465BBAADF862302B6BB346632BCCBFA7
:10571800234602231693504BB1461C603446149618
:105728000D9613964C4BD3F800A0BAF1000F4CD14C
:105738000C9851F0C3FB042326933B4653F8702B77
:105748000DF1A00C279207F1980E62461868596867
:10575800083303C273459446F7D1109B26AA4FF429
:105768000271052063F021FD4FF40373119A136051
:105778002F4B1B889B0720D52E4B4FF47A721B6842
:1057880040460C930E9B59460A930D9B09932B6B2D
:105798000893149B0793139B06930023FBF794FB32
:1057A800CDE90249CDE90401BB6F0C98009332465C
:1057B8003B6F2A49806850F09FFE294866F0F8FF41
:1057C80050460DF5297DBDE8F08F00211AA866F036
:1057D800C7FF01234FF0000A0E930C9B0833179361
:1057E8002B6B534540DA0D9B002101331EA80D9306
:1057F80066F0B6FF1EA91AA80CF032F9194B9842A8
:1058080040F28A80A0F57420139BA0F5107010EB6D
:10581800080003F1010380464FF47A704BF1000B46
:10582800139366F0C5FF013449F100097AE700BF18
:10583800242700202C250020845F0800026008002F
:10584800A15F08004960080085600800F46008004E
:105858003C610800A95E0800D0570020C06108001C
:1058680040420F003F420F00731C184617991593CA
:1058780063F0E5FC002122A866F072FF0C9B2298D9
:1058880003F10C0163F0DBFC0C9B249803F110017D
:1058980063F0D5FC0C99129A0F9818AB63F052FC80
:1058A800411C20D0D7E91E321B1842EBE072C7E931
:1058B8001E323B6F01333B6732222B6B93FBF2F3B3
:1058C8000E9A534353450AD142F2107066F070FFA6
:1058D8000E9B0A3403F1010349F100090E93159E4A
:1058E8000AF1010A7CE74FF47A7066F061FF284BF1
:1058F80001341B8849F100099A0709D5254B32461E
:105908001868169B244900938068534650F0F4FDAC
:105918000AF1FF3A1596CFE758EA0B0315D0002293
:10592800C0F5742303F51073434572EB0B020AD2DA
:10593800B8EB030341F288306BF1000B984666F030
:1059480037FF053470E7A0EB08004FF47A73B0FB1B
:10595800F3F0A3EB0008404663F00AFC18EB0408D8
:1059680044464FF000086B6B0D9A49F100099342C9
:10597800B8BF149BC346BCBF01331493D2E60F9B38
:10598800002BFFF634AE002EBFF641AE2FE600BF67
:10599800242700202C2500205C61080070B51D46D6
:1059A8000F4B14461B889B0705D50E4B0E491B68E9
:1059B800986850F0A1FD0D4E0423304620220C4972
:1059C80040F8083B53F00EF92B4632464FF402716B
:1059D800012063F0EAFB4FF403732360002070BDDD
:1059E800242700202C2500208E620800E82C0020A7
:1059F800B1620800F7B51F461A4B0C461B881646BD
:105A08009B0705D5184B19491B68986850F074FD19
:105A18005034204653F04CF805460146144851F0DE
:105A2800A3FE7DB14FF400720021124B124800947E
:105A380052F0B4FC1049002064F0E4FF0E490F480E
:105A480051F092FE0E49002064F0DCFF04210D4A5B
:105A58003B461620116063F0A8FB08230020336042
:105A680003B0F0BD242700202C250020D0620800B8
:105A7800EE620800F36208002A8800200A63080022
:105A880011630800E82C002038B51D460C4B14465D
:105A98001B889B0705D50B4B0B491B68986850F072
:105AA8002BFD0A49002064F0ADFF0421084A2B466B
:105AB8001620116063F079FB08232360002038BDAD
:105AC800242700202C250020D06208002A63080023
