:10000000689B01203D850100F980060011850100F3
:100010001185010011850100118501001185010084
:10002000000000000000000000000000697D0100E9
:1000300011850100000000000D7D01001185010007
:10004000ED7D0100ED7D0100ED7D0100ED7D010004
:10005000ED7D0100ED7D0100ED7D0100ED7D0100F4
:10006000ED7D0100ED7D0100ED7D0100ED7D0100E4
:10007000ED7D0100ED7D0100ED7D0100ED7D0100D4
:10008000ED7D0100ED7D0100ED7D0100ED7D0100C4
:10009000ED7D0100ED7D0100ED7D0100ED7D0100B4
:1000A000ED7D0100ED7D0100ED7D0100ED7D0100A4
:1000B000ED7D0100ED7D0100ED7D0100ED7D010094
:1000C000ED7D0100ED7D0100ED7D0100ED7D010084
:1000D000ED7D0100ED7D0100ED7D0100ED7D010074
:1000E000ED7D0100ED7D0100ED7D0100ED7D010064
:1000F000ED7D0100ED7D0100ED7D0100ED7D010054
:10010000ED7D0100ED7D0100ED7D0100ED7D010043
:10011000ED7D0100ED7D0100ED7D0100ED7D010033
:10012000ED7D0100ED7D0100ED7D0100ED7D010023
:10013000ED7D0100ED7D0100ED7D0100ED7D010013
:10014000ED7D0100ED7D0100ED7D0100ED7D010003
:04015000ED7D010040
:04015400FFFFFFFFAB
:1001580081F0004102E000BF83F0004330B54FEA70
:1001680041044FEA430594EA050F08BF90EA020FDD
:100178001FBF54EA000C55EA020C7FEA645C7FEA70
:10018800655C00F0E2804FEA5454D4EB5555B8BF93
:100198006D420CDD2C4480EA020281EA030382EA04
:1001A800000083EA010180EA020281EA0303362D96
:1001B80088BF30BD11F0004F4FEA01314FF4801C69
:1001C8004CEA113102D0404261EB410113F0004F7B
:1001D8004FEA03334CEA133302D0524263EB430332
:1001E80094EA050F00F0A780A4F10104D5F1200ED0
:1001F8000DDB02FA0EFC22FA05F2801841F100012B
:1002080003FA0EF2801843FA05F359410EE0A5F1FE
:1002180020050EF1200E012A03FA0EFC28BF4CF02F
:10022800020C43FA05F3C01851EBE37101F00045E5
:1002380007D54FF0000EDCF1000C7EEB00006EEBF2
:100248000101B1F5801F1BD3B1F5001F0CD349087C
:100258005FEA30004FEA3C0C04F101044FEA4452D3
:1002680012F5800F80F09A80BCF1004F08BF5FEA5A
:10027800500C50F1000041EB045141EA050130BD3A
:100288005FEA4C0C404141EB0101013C28BFB1F54C
:10029800801FE9D291F0000F04BF01460020B1FA97
:1002A80081F308BF2033A3F10B03B3F120020CDA6A
:1002B8000C3208DD02F1140CC2F10C0201FA0CF048
:1002C80021FA02F10CE002F11402D8BFC2F1200CAD
:1002D80001FA02F120FA0CFCDCBF41EA0C01904063
:1002E800E41AA2BF01EB0451294330BD6FEA0404AC
:1002F8001F3C1CDA0C340EDC04F11404C4F1200297
:1003080020FA04F001FA02F340EA030021FA04F3A8
:1003180045EA030130BDC4F10C04C4F1200220FAFF
:1003280002F001FA04F340EA0300294630BD21FA3D
:1003380004F0294630BD94F0000F83F4801306BF03
:1003480081F480110134013D4EE77FEA645C18BFF7
:100358007FEA655C29D094EA050F08BF90EA020F8E
:1003680005D054EA000C04BF1946104630BD91EA86
:10037800030F1EBF0021002030BD5FEA545C05D189
:100388004000494128BF41F0004130BD14F58004C8
:100398003CBF01F5801130BD01F0004545F0FE413C
:1003A80041F470014FF0000030BD7FEA645C1ABF71
:1003B800194610467FEA655C1CBF0B46024650EAA8
:1003C800013406BF52EA033591EA030F41F40021D4
:1003D80030BD00BF90F0000F04BF0021704730B55A
:1003E8004FF4806404F132044FF000054FF000012F
:1003F80050E700BF90F0000F04BF0021704730B5F0
:100408004FF4806404F1320410F0004548BF4042C4
:100418004FF000013EE700BF42004FEAE2014FEA19
:1004280031014FEA02701FBF12F07F4393F07F4FF4
:1004380081F06051704732F07F4208BF704793F0F7
:100448007F4F04BF41F40021704730B54FF460740A
:1004580001F0004521F000411CE700BF50EA01020D
:1004680008BF704730B54FF000050AE050EA0102B6
:1004780008BF704730B511F0004502D5404261EB26
:1004880041014FF4806404F132045FEA915C3FF467
:10049800D8AE4FF003025FEADC0C18BF03325FEA04
:1004A800DC0C18BF033202EBDC02C2F1200300FAB5
:1004B80003FC20FA02F001FA03FE40EA0E0021FADA
:1004C80002F11444BDE600BF70B54FF0FF0C4CF4C8
:1004D800E06C1CEA11541DBF1CEA135594EA0C0F7A
:1004E80095EA0C0F00F0DEF82C4481EA030621EAB5
:1004F8004C5123EA4C5350EA013518BF52EA0335F0
:1005080041F4801143F4801338D0A0FB02CE4FF0A1
:100518000005E1FB02E506F00042E0FB03E54FF0D1
:100528000006E1FB03569CF0000F18BF4EF0010EC9
:10053800A4F1FF04B6F5007F64F5407404D25FEAC5
:100548004E0E6D4146EB060642EAC62141EA555178
:100558004FEAC52040EA5E504FEACE2EB4F1FD0CBA
:1005680088BFBCF5E06F1ED8BEF1004F08BF5FEA38
:10057800500E50F1000041EB045170BD06F00046EA
:1005880046EA010140EA020081EA0301B4EB5C0497
:10059800C2BFD4EB0C0541EA045170BD41F480118F
:1005A8004FF0000E013C00F3AB8014F1360FDEBFB4
:1005B800002001F0004170BDC4F10004203C35DA90
:1005C8000C341BDC04F11404C4F1200500FA05F313
:1005D80020FA04F001FA05F240EA020001F00042B4
:1005E80021F0004110EBD37021FA04F642EB06012A
:1005F8005EEA430E08BF20EAD37070BDC4F10C0454
:10060800C4F1200500FA04F320FA05F001FA04F217
:1006180040EA020001F0004110EBD37041F1000103
:100628005EEA430E08BF20EAD37070BDC4F120050E
:1006380000FA05F24EEA020E20FA04F301FA05F276
:1006480043EA020321FA04F001F0004121FA04F21E
:1006580020EA020000EBD3705EEA430E08BF20EAEE
:10066800D37070BD94F0000F0FD101F00046400028
:1006780041EB010111F4801F08BF013CF7D041EAAA
:10068800060195F0000F18BF704703F000465200AE
:1006980043EB030313F4801F08BF013DF7D043EA7F
:1006A8000603704794EA0C0F0CEA135518BF95EA35
:1006B8000C0F0CD050EA410618BF52EA4306D1D1BC
:1006C80081EA030101F000414FF0000070BD50EADB
:1006D800410606BF1046194652EA430619D094EA65
:1006E8000C0F02D150EA013613D195EA0C0F05D14F
:1006F80052EA03361CBF104619460AD181EA0301A3
:1007080001F0004141F0FE4141F470014FF000005A
:1007180070BD41F0FE4141F4780170BD70B54FF0F5
:10072800FF0C4CF4E06C1CEA11541DBF1CEA135575
:1007380094EA0C0F95EA0C0F00F0A7F8A4EB050457
:1007480081EA030E52EA03354FEA013100F088804E
:100758004FEA03334FF0805545EA131343EA126317
:100768004FEA022245EA111545EA10654FEA0026CC
:100778000EF000419D4208BF964244F1FD0404F585
:10078800407402D25B084FEA3202B61A65EB0305E1
:100798005B084FEA32024FF480104FF4002CB6EB9E
:1007A800020E75EB030E22BFB61A754640EA0C001E
:1007B8005B084FEA3202B6EB020E75EB030E22BF5E
:1007C800B61A754640EA5C005B084FEA3202B6EB9F
:1007D800020E75EB030E22BFB61A754640EA9C005E
:1007E8005B084FEA3202B6EB020E75EB030E22BF2E
:1007F800B61A754640EADC0055EA060E18D04FEAEC
:10080800051545EA16754FEA06164FEAC30343EA8B
:1008180052734FEAC2025FEA1C1CC0D111F4801F58
:100828000BD141EA00014FF000004FF0004CB6E751
:1008380011F4801F04BF01430020B4F1FD0C88BFF0
:10084800BCF5E06F3FF6AFAEB5EB030C04BFB6EBFB
:10085800020C5FEA500C50F1000041EB045170BDEE
:100868000EF0004E4EEA113114EB5C04C2BFD4EB1B
:100878000C0541EA045170BD41F480114FF0000E9F
:10088800013C90E645EA060E8DE60CEA135594EA1B
:100898000C0F08BF95EA0C0F3FF43BAF94EA0C0F1E
:1008A8000AD150EA01347FF434AF95EA0C0F7FF493
:1008B80025AF104619462CE795EA0C0F06D152EAE7
:1008C80003353FF4FDAE1046194622E750EA4106CB
:1008D80018BF52EA43067FF4C5AE50EA41047FF4DC
:1008E8000DAF52EA43057FF4EBAE12E74FF0FF3C41
:1008F80006E000BF4FF0010C02E000BF4FF0010C12
:100908004DF804CD4FEA410C7FEA6C5C4FEA430C8A
:1009180018BF7FEA6C5C1BD001B050EA410C0CBFD9
:1009280052EA430C91EA030F02BF90EA020F00203B
:10093800704710F1000F91EA030F58BF994208BFA2
:1009480090422CBFD8176FEAE37040F0010070475F
:100958004FEA410C7FEA6C5C02D150EA013C07D1B6
:100968004FEA430C7FEA6C5CD6D152EA033CD3D001
:100978005DF8040B704700BF8446104662468C46FB
:100988001946634600E000BF01B5FFF7B7FF00282E
:1009980048BF10F1000F01BD4DF808EDFFF7F4FF57
:1009A8000CBF012000205DF808FB00BF4DF808EDE2
:1009B800FFF7EAFF34BF012000205DF808FB00BF05
:1009C8004DF808EDFFF7E0FF94BF012000205DF827
:1009D80008FB00BF4DF808EDFFF7CEFF94BF0120DC
:1009E80000205DF808FB00BF4DF808EDFFF7C4FFD5
:1009F80034BF012000205DF808FB00BF4FEA410228
:100A0800B2F1E04324BFB3F5001CDCF1FE5C0DD964
:100A180001F0004C4FEAC0024CEA5070B2F1004FAE
:100A280040EB830008BF20F00100704711F0804FB1
:100A380021D113F13872BCBF01F00040704741F476
:100A480080114FEA5252C2F11802C2F1200C10FA7A
:100A58000CF320FA02F018BF40F001004FEAC1235E
:100A68004FEAD32303FA0CFC40EA0C0023FA02F302
:100A78004FEA4303CCE77FEA625307D150EA0133D8
:100A88001EBF4FF0FE4040F44000704701F00040A8
:100A980040F0FE4040F40000704700BF80F0004086
:100AA80002E000BF81F0004142001FBF5FEA41033E
:100AB80092EA030F7FEA226C7FEA236C6AD04FEA3E
:100AC8001262D2EB1363C1BFD21841404840414083
:100AD800B8BF5B42192B88BF704710F0004F40F435
:100AE800000020F07F4018BF404211F0004F41F451
:100AF800000121F07F4118BF494292EA030F3FD01D
:100B0800A2F1010241FA03FC10EB0C00C3F120032F
:100B180001FA03F100F0004302D5494260EB4000BE
:100B2800B0F5000F13D3B0F1807F06D340084FEA29
:100B3800310102F10102FE2A51D2B1F1004F40EB1E
:100B4800C25008BF20F0010040EA03007047490086
:100B580040EB0000013A28BFB0F5000FEDD2B0FA23
:100B680080FCACF1080CB2EB0C0200FA0CF0AABF46
:100B780000EBC25052421843BCBFD04018437047E4
:100B880092F0000F81F4000106BF80F400000132EA
:100B9800013BB5E74FEA41037FEA226C18BF7FEAC1
:100BA800236C21D092EA030F04D092F0000F08BF03
:100BB8000846704790EA010F1CBF0020704712F0EA
:100BC8007F4F04D1400028BF40F00040704712F129
:100BD80000723CBF00F50000704700F0004343F08E
:100BE800FE4040F4000070477FEA226216BF0846C4
:100BF8007FEA23630146420206BF5FEA412390EA87
:100C0800010F40F4800070474FF0000304E000BF7C
:100C180010F0004348BF40425FEA000C08BF70472D
:100C280043F0964301464FF000001CE050EA0102F1
:100C380008BF70474FF000030AE000BF50EA010206
:100C480008BF704711F0004302D5404261EB4101F3
:100C58005FEA010C02BF84460146002043F0B64318
:100C680008BFA3F18053A3F50003BCFA8CF2083A3D
:100C7800A3EBC25310DB01FA02FC634400FA02FC46
:100C8800C2F12002BCF1004F20FA02F243EB02004D
:100C980008BF20F00100704702F1200201FA02FCAF
:100CA800C2F1200250EA4C0021FA02F243EB0200A2
:100CB80008BF20EADC7070474FF0FF0C1CEAD052E6
:100CC8001EBF1CEAD15392EA0C0F93EA0C0F6FD0A7
:100CD8001A4480EA010C400218BF5FEA41211ED085
:100CE8004FF0006343EA501043EA5111A0FB013171
:100CF8000CF00040B1F5000F3EBF490041EAD37146
:100D08005B0040EA010062F17F02FD2A1DD8B3F1C1
:100D1800004F40EBC25008BF20F00100704790F030
:100D2800000F0CF0004C08BF49024CEA502040EA82
:100D380051207F3AC2BFD2F1FF0340EAC250704748
:100D480040F400004FF00003013A5DDC12F1190F86
:100D5800DCBF00F000407047C2F10002410021FAF8
:100D680002F1C2F1200200FA02FC5FEA310040F110
:100D7800000053EA4C0308BF20EADC70704792F089
:100D8800000F00F0004C02BF400010F4000F013AC1
:100D9800F9D040EA0C0093F0000F01F0004C02BFBC
:100DA800490011F4000F013BF9D041EA0C018FE72B
:100DB8000CEAD15392EA0C0F18BF93EA0C0F0AD031
:100DC80030F0004C18BF31F0004CD8D180EA010057
:100DD80000F00040704790F0000F17BF90F0004FF0
:100DE800084691F0000F91F0004F14D092EA0C0FD2
:100DF80001D142020FD193EA0C0F03D14B0218BF65
:100E0800084608D180EA010000F0004040F0FE40AA
:100E180040F40000704740F0FE4040F44000704746
:100E28004FF0FF0C1CEAD0521EBF1CEAD15392EAC5
:100E38000C0F93EA0C0F69D0A2EB030280EA010CB5
:100E480049024FEA402037D04FF0805343EA11114E
:100E580043EA10130CF000408B4238BF5B0042F1AC
:100E68007D024FF4000C8B4224BF5B1A40EA0C0051
:100E7800B3EB510F24BFA3EB510340EA5C00B3EB83
:100E8800910F24BFA3EB910340EA9C00B3EBD10F71
:100E980024BFA3EBD10340EADC001B0118BF5FEAC3
:100EA8001C1CE0D1FD2A3FF650AF8B4240EBC250EC
:100EB80008BF20F0010070470CF0004C4CEA5020AD
:100EC8007F32C2BFD2F1FF0340EAC250704740F4FC
:100ED80000004FF00003013A37E792F0000F00F0EE
:100EE800004C02BF400010F4000F013AF9D040EA6C
:100EF8000C0093F0000F01F0004C02BF490011F400
:100F0800000F013BF9D041EA0C0195E70CEAD153F7
:100F180092EA0C0F08D142027FF47DAF93EA0C0FDE
:100F28007FF470AF084676E793EA0C0F04D14B02C2
:100F38003FF44CAF08466EE730F0004C18BF31F074
:100F4800004CCAD130F000427FF45CAF31F000436E
:100F58007FF43CAF5FE700BF4FF0FF3C06E000BF07
:100F68004FF0010C02E000BF4FF0010C4DF804CD2A
:100F78004FEA40024FEA41037FEA226C18BF7FEA3A
:100F8800236C11D001B052EA530C18BF90EA010F3C
:100F980058BFB2EB030088BFC81738BF6FEAE170CB
:100FA80018BF40F0010070477FEA226C02D15FEA67
:100FB800402C05D17FEA236CE4D15FEA412CE1D0D3
:100FC8005DF8040B704700BF844608466146FFE79A
:100FD8000FB5FFF7C9FF002848BF10F1000F0FBD7C
:100FE8004DF808EDFFF7F4FF0CBF012000205DF875
:100FF80008FB00BF4DF808EDFFF7EAFF34BF0120FA
:1010080000205DF808FB00BF4DF808EDFFF7E0FF92
:1010180094BF012000205DF808FB00BF4DF808EDE3
:10102800FFF7D2FF94BF012000205DF808FB00BF46
:101038004DF808EDFFF7C8FF34BF012000205DF828
:1010480008FB00BF4FEA4002B2F1FE4F0FD34FF04A
:101058009E03B3EB12620DD94FEA002343F000431D
:1010680010F0004F23FA02F018BF404270474FF0CB
:101078000000704712F1610F01D1420205D110F052
:10108800004008BF6FF0004070474FF00000704705
:101098007BB972B90029BEBF00204FF0004106E0BD
:1010A80008BF00281CBF6FF000414FF0FF3000F070
:1010B80075B8ADF1080C6DE904CE002909DB002BE9
:1010C8001ADB01F0D6F8DDF804E0DDE9022304B00C
:1010D8007047404261EB4101002B1BDB01F0C9F86E
:1010E800DDF804E0DDE9022304B0404261EB410190
:1010F800524263EB43037047524263EB430301F0F0
:10110800B8F8DDF804E0DDE9022304B0404261EB01
:1011180041017047524263EB430301F0AAF8DDF83E
:1011280004E0DDE9022304B0524263EB4303704755
:1011380053B94AB9002908BF00281CBF4FF0FF3136
:101148004FF0FF3000F02AB8ADF1080C6DE904CE7D
:1011580001F08FF8DDF804E0DDE9022304B0704700
:10116800D0B500220B4B06460F46FFF7ADF900F04D
:1011780017F80446FFF72EF90022074BFFF7A4F9EA
:1011880002460B4630463946FEF7E6FF00F008F8FF
:101198002146D0BD0000F03D0000F041704700BF7F
:1011A8004A0011D212F5001211D20DD56FF47873DE
:1011B800B3EB62520ED44FEAC12343F0004343EA33
:1011C800505323FA02F070474FF00000704750EA7E
:1011D800013002D14FF0FF3070474FF000007047E8
:1011E800844641EA000313F0030349D1403A23D36C
:1011F8000B6803604B6843608B688360CB68C3608F
:101208000B6903614B6943618B698361CB69C36176
:101218000B6A03624B6A43628B6A8362CB6AC3625E
:101228000B6B03634B6B43638B6B8363CB6BC36346
:1012380040304031403ADBD230320BD30B68036088
:101248004B6843608B688360CB68C3601030103193
:10125800103AF3D20C3205D351F8043B40F8043B62
:10126800043AF9D2043208D0D2071CBF11F8013B66
:1012780000F8013B01D30B8803806046704700BF2C
:10128800082A13D38B07B1D010F00303AED0C3F1F3
:101298000403D21ADB071CBF11F8013B00F8013B1D
:1012A800A4D331F8023B20F8023B9FE7043AD9D394
:1012B800013A11F8013B00F8013BF9D20B780370B1
:1012C8004B7843708B7883706046704780EA010CD6
:1012D8001CF0030F37D110F0030C20F0030021F0AD
:1012E800030150F8042B08BF51F8043B0ED08CF0D2
:1012F800030C6FF07F434FEACC0C23FA0CFC51F837
:10130800043B42EA0C0243EA0C0300BFA2F1013C91
:101318009A4201BF2CEA020C1CF0803F50F8042BC3
:1013280051F8043BF2D04FEA02604FEA122201283A
:1013380028BFB0EB036F08BF1B0AF4D003F0FF030C
:10134800000EC01A704710F0030F0AD010F8012BD6
:1013580011F8013B012A28BF9A42F4D0A2EB0300FE
:1013680070474DF8045D50F8042B01F0030521F097
:10137800030151F8043B022D26D04DD822F07F45B9
:10138800B5EB132FA2F1013C2CEA020C0DD11CF095
:10139800803C08BF51F8043B0AD185EA0205B5EB49
:1013A800036F0CD150F8042BE8E74FEA13235BE0F6
:1013B8003CF07F4C54D10B784FEA126554E04FEA69
:1013C800126503F0FF034FE04FEA0245A2F1013C2A
:1013D8004FEA15452CEA020CB5EB134F18D11CF057
:1013E800803C08BF51F8043B07D185EA0205B5EBFC
:1013F800034F09D150F8042BE6E75FEA0C4C2FD1D4
:101408000B884FEA12452FE04FEA03434FEA124593
:101418004FEA134328E000BF02F0FF05B5EB136F56
:10142800A2F1013C2CEA020C0DD11CF0803C08BF53
:1014380051F8043B0AD185EA0205B5EB032F0AD11E
:1014480050F8042BE8E74FEA13630DE012F0FF0FA2
:1014580006D051F8043B4FEA122523F07F4303E0FE
:101468004FF0000020BC704705F0FF0203F0FF00BA
:10147800012828BF904204BF2D0A1B0AF4D0A2EB12
:10148800000020BC704700BF4FEA410C7FEA6C5C4B
:1014980002D150EA013C0AD14FEA430C7FEA6C5C66
:1014A80002D152EA033C02D14FF0000070474FF0DE
:1014B800010070474FEA410212F5001215D211D50A
:1014C8006FF47873B3EB625212D94FEAC12343F039
:1014D800004343EA505311F0004F23FA02F018BFBB
:1014E800404270474FF00000704750EA013005D184
:1014F80011F0004008BF6FF0004070474FF0000047
:10150800704700BF2DE9F14F03F11C0402EB840C76
:101518004FEA930B8A68CB680868496800F046F977
:101528003CE9F0006040694072407B400BF1060ED8
:101538004EE083EA134480EA134582EA134746BA29
:1015480096EA3444604000F00F1684EA063420F02E
:101558000F1684EA161054BA94EA0106724002F093
:101568000F1486EA043622F00F1486EA14124CBAD5
:101578006540694001F00F1485EA043521F00F1425
:1015880085EA14115CBA67407B4003F00F1487EAC0
:10159800043723F00F1487EA141344BA44404DBAB1
:1015A8004D4056BA56405FBA5F4087EA174886EA08
:1015B800174B84EA17464FEA38488BEA1B4485EAFA
:1015C8001B4788EA1B4580EA3440694072407B40EB
:1015D80000F0703400F0803500F00F3040EA44002D
:1015E80040EAD50080EA900404F0332480EA8400BD
:1015F800604001F0703401F0803501F00F3141EAAC
:10160800440141EAD50181EA910404F0332481EAD6
:101618008401614002F0703402F0803502F00F322C
:1016280042EA440242EAD50282EA920404F03324F0
:1016380082EA8402624003F0703403F0803503F0DC
:101648000F3343EA440343EAD50383EA930404F0DF
:10165800332483EA84036340C943DB4381EA0004FB
:1016680083EA044686EA020183EA014382EA3345B3
:1016780083EA14435C4084EA00077FEA040A8AEAA2
:10168800024A8AEA010B87EA11488AEA374A80EA5D
:10169800060181EA1A418AEA030A04EA0A00454077
:1016A80088EA040707EA0B0041408AEA0B0608EAC1
:1016B800060084EA34428AEA3A4602EA06035840B7
:1016C8004540414087EA37438BEA3B4003EA00093B
:1016D80085EA090582EA0309464006EA09067140D7
:1016E80085EA010005EA3546464006EA314181EAC5
:1016F800304181EA364606EA304686EA35463440C5
:101708000F4086EA010508EA050886EA36400240E5
:1017180088EA020881EA314213405C4080EA020309
:1017280009EA030987EA0907674088EA040806EA1C
:101738000A0601EA0B018AEA0B0425408AEA3A44C0
:10174800204045408BEA3B4B02EA0B02564084EAB4
:101758000B04234059406E40694087EA364080EACE
:10176800384080EA060380EA104481EA134585EA96
:10177800344585EA17427D4082EA354180EA0540D2
:101788003CE9F0006040694072407B40BEF1010EC8
:101798003FF6CFAE20BC00F05FF828606960AA6011
:1017A800EB60BDE8F08F00BF00F000BA80EA1014CB
:1017B80004F0F01480EA0410604081EA111404F087
:1017C800F01481EA0411614082EA121404F0F01462
:1017D80082EA0412624083EA131404F0F01483EAE4
:1017E8000413634080EA102404F47F4480EA042050
:1017F800604081EA112404F47F4481EA04216140B5
:1018080082EA122404F47F4482EA0422624083EAD2
:10181800132404F47F4483EA0423634081EA5004D8
:1018280004F0553480EA4400614083EA520404F02D
:10183800553482EA4402634082EA900404F0333467
:1018480080EA8400624083EA910404F0333481EA38
:1018580084016340704700BF82EA900404F0333487
:1018680080EA8400624083EA910404F0333481EA18
:101878008401634081EA500404F0553480EA44004E
:10188800614083EA520404F0553482EA440263401A
:1018980080EA102404F47F4480EA0420604081EA4E
:1018A800112404F47F4481EA0421614082EA12246D
:1018B80004F47F4482EA0422624083EA132404F495
:1018C8007F4483EA0423634080EA101404F0F01490
:1018D80080EA0410604081EA111404F0F01481EAEF
:1018E8000411614082EA121404F0F01482EA04122E
:1018F800624083EA131404F0F01483EA041363408B
:10190800704700BF2DE9F14F94464FEA930B8A6860
:10191800CB6808684968FFF749FF0BF1060E33E00A
:1019280083EA134480EA134582EA134746BA96EAE3
:101938003444604000F00F1684EA063420F00F1695
:1019480084EA161054BA94EA0106724002F00F14A1
:1019580086EA043622F00F1486EA14124CBA65405F
:10196800694001F00F1485EA043521F00F1485EA67
:1019780014115CBA67407B4003F00F1487EA043700
:1019880023F00F1487EA1413BCE8F00060406940A4
:1019980072407B4000F0E03400F0103500F00F306A
:1019A80040EA540040EAC50080EA900404F0332479
:1019B80080EA8400604001F0E03401F0103501F065
:1019C8000F3141EA540141EAC50181EA910404F06A
:1019D800332481EA8401614002F0E03402F01035DA
:1019E80002F00F3242EA540242EAC50282EA920445
:1019F80004F0332482EA8402624003F0E03403F006
:101A0800103503F00F3343EA540343EAC50383EA6E
:101A1800930404F0332483EA8403634081EA324761
:101A280087EA134581EA354690EA060484EA034BBF
:101A380082EA1B4280EA044484EA054483EA144AA1
:101A480085EA14448BEA044B84EA374481EA0B4163
:101A580081EA164104EA0A00454082EA04082BEAB2
:101A6800080041408AEA0B0602EA060084EA344389
:101A78008AEA3A4603EA060778404540414088EA40
:101A880038478BEA3B4007EA000985EA090583EAFB
:101A98000709464006EA0906714085EA010005EA99
:101AA8003546464006EA314181EA304181EA364608
:101AB80006EA304686EA3546344008EA010886EAEE
:101AC80001052A4086EA364003405A4081EA3143FC
:101AD8001F407C4080EA030709EA070988EA0908E9
:101AE800544088EA020806EA0A0601EA0B018AEA73
:101AF8000B0215408AEA3A42104045408BEA3B40C7
:101B080003405E404240174079404D404E40E44318
:101B1800F64386EA18435D4085EA054083EA1343A5
:101B280086EA034183EA384284EA114383EA04439C
:101B38005FEA3343BEF1010E3FF6F2AE1ED4BCE8B5
:101B4800F0006040694072407B4020BCFFF784FE93
:101B580028606960AA60EB60BDE8F08F2DE9E0417C
:101B68004FF2F00280EA1031114080EA013048401B
:101B780041088208C3084FF0000E4FE700F011300B
:101B880001F0113102F0113203F0113340EA410043
:101B980040EA820040EAC3004FF2F00280EA1031C6
:101BA800114080EA01304840BDE8E0812DE9F04F5E
:101BB80002F11C050646074600EB850851F8040BA0
:101BC800043A46F8040BF9D14FF0010CFFF7C6FFB1
:101BD8005FEA302080EA0C001ECF41404A40534063
:101BE8005C401EC62000464517D04FEA4C0C1CF43A
:101BF800807F18BFACF1E50C2C2DE7D03C2D06D129
:101C0800FFF7ACFF06CF41404A4006C6100006CF9A
:101C180041404A4006C61000D8E736E90F00FFF7F2
:101C2800C5FD043D86E80F00F7D1BDE8F08F00BF81
:101C38002DE9F04FB0E8FE0783B02DE9010790E8E1
:101C4800005F4FF00A0006900198DB199CEA030C2C
:101C580018EB3C4897EA080713EB375393EA3C4CD8
:101C680018EB3C6898EA375724189EEA040E19EBDB
:101C78003E4990EA090014EB305494EA3E4E19EBC1
:101C88003E6999EA3050CDE90489DDE902894919AC
:101C98009AEA010A18EB3A4895EA080511EB35511A
:101CA80091EA3A4A18EB3A6898EA355592199BEA4C
:101CB800020B19EB3B4996EA090612EB365292EAF7
:101CC8003B4B19EB3B6999EA365613EB706393EA81
:101CD8003B6B18EB3B4898EA706013EB305393EA80
:101CE8003B4B5FEA3B6B18EB0B0898EA30505FEA16
:101CF800706014EB756494EA3C6C19EB3C4999EA02
:101D0800756514EB355494EA3C4C5FEA3C6C19EB6E
:101D18000C0999EA35555FEA7565CDE90289DDE96F
:101D2800048911EB766191EA3E6E18EB3E4898EA19
:101D3800766611EB365191EA3E4E5FEA3E6E18EB3D
:101D48000E0898EA36565FEA766612EB776292EAF0
:101D58003A6A19EB3A4999EA776712EB375292EAED
:101D68003A4A5FEA3A6A19EB0A0999EA37575FEA89
:101D780077670190069801387FF465AF01BC80E869
:101D8800005FBDE8000700E9FE0703B0BDE8F08F7B
:101D980030B44FF0000310F8014B11F8015B013A21
:101DA80084EA050443EA0403F5D1A3F101034FEAE9
:101DB800D37030BC704700BF4FF0000310F8012B00
:101DC800013943EA0203F9D1A3F101034FEAD370C1
:101DD800704700BF30B411F8014B12F8015B6C403A
:101DE80000F8014B013BF6D130BC70472DE9F14FAB
:101DF800F8C892E8005E19EB03095AEB040A5BEB9A
:101E0800050B5CEB060C4EEB070E91E8E001A9FB15
:101E18000502AAFB0543E9FB6624EAFB6634A9FB35
:101E28000765E9FB6845B1E80003EBFB6836ECFBA6
:101E38006846EEFB6856ABFB0987ECFB6957EEFB7F
:101E4800696791E80202EAFB6148EBFB6158ECFB29
:101E58006168EEFB61784FF00001EAFB0951EBFB8A
:101E68006961ECFB6971EEFB69814FF4A03C4FEAB4
:101E7800154949EA06495FF0000AE9FB0C0A4FEAEE
:101E8800164646EA0746E6FB6C2A4FEA174747EA32
:101E98000847E7FB6C3A4FEA184848EA0148E8FB6C
:101EA8006C4AADB25544AF0805F0030507EB870748
:101EB800C01952F1000153F1000254F1000345F139
:101EC800000420BC1FC5BDE8F08F00BF30B490E807
:101ED8003C10511D53F1000154F1000155F100016E
:101EE8004CF100014FEA9101494201F005015218F5
:101EF80053F1000354F1000455F100054CF1000CB6
:101F08000CF0030C80E83C1030BC70472DE9F04F12
:101F180090E8F00F00F140004FF0040E59E0F0B4E3
:101F2800826BC36B04680525242687593C444FEA15
:101F3800724787EAF24787EA92273C4442684FEAA9
:101F4800F21787EAB24787EAD2073C4440F8044BC5
:101F5800032D08BF6FF01B0687593A444FEA7347B1
:101F680087EAF34787EA93273A4443684FEAF31727
:101F780087EAB34787EAD3073A4440F8042B8759DE
:101F88003B444FEA744787EAF44787EA94273B447F
:101F980044684FEAF41787EAB44787EAD4073B4412
:101FA80040F8043B013DC0D1A0F13C00076A3C4425
:101FB8004FEA724787EAF24787EA92273C44026869
:101FC8004FEAF21787EAB24787EAD2073C44C4636C
:101FD800F0BC4FF0020288EA781C8CEAF84C0BEB54
:101FE800BC1C8AEA090303EA080383EA0A039C443F
:101FF80050F8043B9C4451F8043B9C44674444EA31
:10200800050B0BEA060B04EA05034BEA030BE34452
:1020180084EAF42383EA34530BEBB30B87EA771C87
:102028008CEAF74C0AEBBC1C89EA080303EA0703AD
:1020380083EA09039C4450F8043B9C4451F8043B50
:102048009C4466444BEA040A0AEA050A0BEA0403BC
:102058004AEA030AE2448BEAFB2383EA3B530AEB8E
:10206800B30A86EA761C8CEAF64C09EBBC1C88EAB3
:10207800070303EA060383EA08039C4450F8043B79
:102088009C4451F8043B9C4465444AEA0B0909EA1C
:1020980004090AEA0B0349EA0309E1448AEAFA2334
:1020A80083EA3A5309EBB30985EA751C8CEAF54CC7
:1020B80008EBBC1C87EA060303EA050383EA070367
:1020C8009C4450F8043B9C4451F8043B9C446444B1
:1020D80049EA0A0808EA0B0809EA0A0348EA030871
:1020E800E04489EAF92383EA395308EBB30884EA20
:1020F800741C8CEAF44C07EBBC1C86EA050303EA63
:10210800040383EA06039C4450F8043B9C4451F8BA
:10211800043B9C44E34448EA090707EA0A0708EA3B
:10212800090347EA0307674488EAF82383EA385330
:1021380007EBB3078BEA7B1C8CEAFB4C06EBBC1C59
:1021480085EA040303EA0B0383EA05039C4450F879
:10215800043B9C4451F8043B9C44E24447EA08068B
:1021680006EA090607EA080346EA0306664487EA18
:10217800F72383EA375306EBB3068AEA7A1C8CEA1C
:10218800FA4C05EBBC1C84EA0B0303EA0A0383EA56
:1021980004039C4450F8043B9C4451F8043B9C4481
:1021A800E14446EA070505EA080506EA070345EAA1
:1021B8000305654486EAF62383EA365305EBB3053F
:1021C80089EA791C8CEAF94C04EBBC1C8BEA0A03FB
:1021D80003EA090383EA0B039C4450F8043B9C443C
:1021E80051F8043B9C44E04445EA060404EA070429
:1021F80005EA060344EA0304644485EAF52383EA0E
:10220800355304EBB304013A7FF4E5AEA0F1400086
:10221800BEF1010E7FF483AEA0F1400C9CE80F00E4
:10222800001949199219DB19ACE80F009CE80F0056
:102238004044494452445B44ACE80F00BDE8F08F89
:1022480038B505460C460022002328462146FEF7ED
:10225800ADFB28B928462146BDE83840FEF780BFC7
:10226800284604F10041FEF77BFF404261EB410143
:1022780038BD2DE9F04F07468C460846099E15469D
:102288003C461946002B40F0C5808242B2FA82F7DC
:1022980046D94FB1C7F1200E00FA07F3BD4024FA22
:1022A8000EFEBC404EEA030C4FEA15481FFA85FEA5
:1022B800220CBCFBF8F908FB19C309FB0EFA42EA29
:1022C80003439A4528D9EB1809F1FF3004D29A45FF
:1022D80002D9A9F102002B44A3EB0A03A4B2B3FB71
:1022E800F8F208FB123302FB0EFE44EA0344A6454B
:1022F80014D92C1902F1FF3303D2A64501D9931E34
:102308002C44A4EB0E0443EA00401EB1FC40002319
:1023180034607360BDE8F08F4846DDE71346F0E7A8
:1023280002B9FFDE87BB831A01214FEA154EAAB214
:10233800200CB3FBFEFC0EFB1C330CFB02F840EA3E
:102348000343984562D9EB180CF1FF3004D2984545
:1023580002D9ACF102002B44A3EB0803A4B2B3FBEF
:10236800FEFC0EFB1C330CFB02F244EA0344A242BF
:102378004ED92C190CF1FF3304D2A24202D9ACF188
:1023880002032C44A41ABEE7C7F1200CBD4000FA92
:1023980007F320FA0CF84FEA154E24FA0CFCBC405F
:1023A8004CEA0302ABB2B8FBFEFC110C0EFB1C801E
:1023B8000CFB03F941EA0040814523D928180CF1A8
:1023C800FF3104D2814502D9ACF102012844A0EBC7
:1023D800090092B2B0FBFEFC0EFB1C000CFB03F8DC
:1023E80042EA004398450FD9EB180CF1FF3204D2AA
:1023F800984502D9ACF102022B44A3EB080342EA48
:10240800014192E76146E2E76246F6E76046A3E7E4
:102418006346B7E7834205D90EB1C6E900700021CB
:10242800084677E7B3FA83F181B9834201D3BA4208
:102438000AD8BC1A60EB030301209C46002E67D023
:10244800C6E9004C002165E70846F7E7C1F1200C12
:102458008B4002FA01F522FA0CF420FA0CFB27FA59
:102468000CF28F401C4300FA01F34FEA144913435E
:102478001FFA84FE1A0CBBFBF9F809FB18BB08FB12
:102488000EFA42EA0B4292453ED9A21808F1FF30F3
:1024980004D2924502D9A8F102002244A2EB0A0212
:1024A8009BB2B2FBF9F809FB182208FB0EFE43EABF
:1024B800024296452AD9A21808F1FF3304D296455C
:1024C80002D9A8F10203224443EA0040A2EB0E021B
:1024D800A0FB05939A42CE46984602D306D14F45B3
:1024E80004D20138B9EB050E63EB040886B1B7EBEB
:1024F8000E0362EB080707FA0CFCCB40CF404CEA0E
:102508000303C6E900379DE74046C7E74346DBE7D4
:102518003146FFE6000000000128F8B50E4606D057
:1025280065F044FE162303604FF0FF30F8BD73F0EA
:1025380016FF234A33687468A3FB0235B66802FBAA
:1025480004559C194FEAD03343EA414345EBE675FD
:10255800A3FB0236C90BC0F30E0002FB0161A0FB0E
:102568000202E41A4FEAD03343EA424365EB01051D
:10257800E41A65F100054FF02003EFF3118783F3A8
:102588001288BFF36F8F0CA3D3E900232046294696
:10259800FEF77EFD08A3D3E900230A4EC6E9000131
:1025A80020462946FEF774FDB26087F31188BFF311
:1025B8006F8F0020BAE700BF00CA9A3B00000000F6
:1025C80000CA9A3BE83E00202DE9F04F0C46D0F8AF
:1025D800F410A3B00B6B15461590002B40F0BD808E
:1025E800159818A9266EA76FD5F878B06FF05EF821
:1025F800002800F0C1804FF0000A07F59C5308330B
:102608009B4500F2B3802B6DB3F57A6F179340F3B7
:10261800E680236DB3F57A6FACBF00230123002E4B
:1026280016931BDA2B6E169A03EB42039E4215DDB6
:102638005846FDF7CFFE804638468946FDF7CAFE64
:102648004FF03332A04BFDF73FFF02460B464046A2
:102658004946FEF7ABF9002840F02D810BF59C5355
:1026680008339F4200F22781BAF1190F00F3238142
:1026780016F1550FC0F2B58016F1500FC0F2B480B4
:1026880016F14B0FC0F2B38016F1460FC0F2B280BC
:10269800002EB4BF4FF005084FF002083846FDF78A
:1026A80099FE814658468A46FDF794FE02460B4637
:1026B800CDE912230022854BFDF706FF02460B46A3
:1026C80048465146FEF790F9002800F0968008F138
:1026D8000A08169B0BB1A8F102082B6E07969A1BE5
:1026E800CDE9103B179B90450F9395F82530784A14
:1026F8000E9395F824304FF003010D9395F823308D
:10270800D8BF4FF001080C9395F82230C8BF4FF09E
:1027180000080B9395F821300A9395F82030CDE9FD
:102728000873236D069394F82530059394F82430A4
:10273800049394F82330039394F82230029394F886
:102748002130019394F820300093624B1598D8BF3C
:102758001346614A48F0FCFC0AE00622183105F1EC
:10276800200050F033FC00287FF43AAF4FF0010806
:10277800404623B0BDE8F08FDDF870A0BAF1000F35
:1027880005D1DDF86CA0BAF1000F3FF436AF42F284
:102798000F711D9B189A8B420AD16FF47A63D31874
:1027A80040F26572934294BF6FF05B036FF0580379
:1027B8002046AAEB03086DF064FAD4F88420034697
:1027C80004F18C010AB9D4F88820206D5646CDE969
:1027D800008015983FF00EF9C24607460DE7002322
:1027E8001DE74FF0010859E74FF0020856E74FF090
:1027F800030853E74FF0040850E74FF03332DDE9A0
:102808001201314BFDF760FE02460B464846514621
:10281800FEF7EAF810B108F105085AE728A3D3E94A
:102828000023DDE91201FDF74FFE02460B4648463C
:102838005146FEF7D9F810B108F1020849E7BB453F
:1028480002D208F1010844E70022204B48465146CD
:10285800FDF73AFE02460B46DDE91201FEF7C4F821
:1028680010B1A8F10A0834E74FF03332164B484646
:102878005146FDF729FE02460B46DDE91201FEF737
:10288800B3F810B1A8F1050823E70DA3D3E9002395
:1028980048465146FDF718FE02460B46DDE912018F
:1028A800FEF7A2F810B1A8F1020812E7BB4588BFED
:1028B80008F1FF380DE74FF0000859E7AFF3008043
:1028C8009A9999999999F13F3333F33F0000F83F6A
:1028D80093890900A7890900BD8909000000000043
:1028E8002DE9F04F1D46884BA1B088461B6800248F
:1028F80082460892184605931C9451F06FFE0021F9
:10290800002283464346CDF86C80CDE906121E4668
:1029180013F8014B2D2C2FD8DFE814F0CD002E0032
:102928002E002E002E002E002E002E002E00DA0083
:10293800DA00DA00DA00DA002E002E002E002E006F
:102948002E002E002E002E002E002E002E002E000F
:102958002E002E002E002E002E002E00DA002E0053
:102968002E002E002E002E002E002E002E002E00EF
:102978002E00E4032E00DA0300230993302C00F024
:10298800B18000230A93A4F13003092B00F27B8461
:102998004FF0000930464F464D460130082D09EBEF
:1029A800890205F1010507EB87011B900478CCBF6C
:1029B80003EB420903EB4107A4F13003092BECD9DF
:1029C80005995A4651F060FE002800F0378224F03D
:1029D8002004452C40F09E800020AE468446059099
:1029E800DDF86C8008F101031B9398F801402B2C4B
:1029F80000F046842D2C00F0338300230B93A4F1C0
:102A08003003092B00F23483302C05D11B9B013392
:102A18001B931C78302CFAD0A4F13103082B00F258
:102A2800E681DDF86CB0A4F130020BF101031B93D1
:102A38009BF80140A4F13001092900F2CD8401334B
:102A480002EB82021B9304EB42021C78303AA4F199
:102A580030010929F3D9A3EB0B03082B40F3BC84FD
:102A680044F61F6B0B9B0BB1CBF1000B002D40F014
:102A7800AF840A9B034340F0BD81BCF1000F1AD11B
:102A8800692C00F0AE8314DC492C00F0AA834E2C8C
:102A980011D11E491BA85AF0D7F960B11B9B1B78AE
:102AA800282B00F0AB851A485BF09CF88B46059004
:102AB800A3E16E2CEDD0089B6BB100239B460593D8
:102AC800089BC3F800800598594621B0BDE8F08FEF
:102AD8001B931CE700239B4605930598594621B094
:102AE800BDE8F08F737803F0DF03582B00F03084D3
:102AF80001361B963478302CFAD0002C00F07A81FD
:102B080001230A933FE700BFD8FD0700D8FA070062
:102B18008013080000230B959B46059338460B9CB1
:102B2800FDF758FC0B460246002D08BF2546102C21
:102B3800CDE90623059BABEB03030E932346A8BF01
:102B48001024092B14DDB84B03EBC40353E91223FB
:102B5800FDF7BAFC0246484689469046FDF73AFC1E
:102B680002460B4640464946FDF7F8FACDE906010C
:102B78000B9B0F2B00F378810E9B002B00F0DB835F
:102B88000E9B40F34583162B40F385840B9B0E9ACE
:102B9800C3F1250393420B9B80F292841C1B0E9B6E
:102BA8001C4414F00F000AD09F4901EBC001DDE975
:102BB8000623D1E90001FDF787FCCDE9060134F0D1
:102BC8000F0340F0C18200230A930B9B2A4631462B
:102BD800504600975AF028FB1390002800F0B08365
:102BE8000E9A059B002A22EAE272A3EB0B03A8BF08
:102BF80000231292109300239B469846139C50463C
:102C080061685AF08FFA8146002800F0D581226960
:102C180004F10C010C3002329200FEF7E1FADDE912
:102C280006010B460B911EA90246059050460191DC
:102C38001DA900915AF09EFE1C90002800F0AD815D
:102C4800012150465AF098FB8046002800F0B481D4
:102C58001D9B002BC0F2A381109A129D9E180A9A00
:102C68001E9C9B1A714A2344C4F13604013B9342CB
:102C780080F25D81D21A1F2AA4EB020400F3C481FA
:102C88000123002793401193254434440A9BA6420C
:102C98001D443346A8BF2346AB42A8BF2B46002B92
:102CA80002DDE41AED1AF61A109B002B00F3558189
:102CB800002C00F369810E9B002B00F37481002D1A
:102CC80000F39881002E08DD4146324650465AF0FE
:102CD80091FC8046002800F06F814A461C995046B6
:102CE8005AF01CFD8346002800F066810026C36860
:102CF8004146C6600F935AF0F1FCB042C0F2AA8474
:102D0800079B0C9300F0F383414658465AF094FE13
:102D180000224FF0804304460D46FDF751FE00287F
:102D280000F009810F9B002B00F07A81404F0024AE
:102D38003F4D11960C9A3F4E3F4B16409E4200F075
:102D48009C810A9B13B3B6F1D46F1FD811983946EA
:102D580033A3D3E90023FDF733FEA0B13946119818
:102D6800FEF71EFA012838BF0120FDF733FB0F9B41
:102D78000F461190002B00F0D081119A0B46CDE937
:102D88001623DDE9164505F1D6639D1B05980B99B9
:102D98005AF068FD02460B4620462946FDF794FB8B
:102DA800059A0B9BFDF7DAF90D46CDE90601214B93
:102DB8002B40B34203D10A9B002B00F03B821C99A5
:102DC80050465AF0D5F9494650465AF0D1F941468D
:102DD80050465AF0CDF9594650465AF0C9F90DE710
:102DE8004FF0010C24F02003452B00F08B814FF0AD
:102DF800000B3BE600239B460593089A0AB11B9BF0
:102E08001360099B002B3FF45EAE0BF1004305985D
:102E18009B46594621B0BDE8F08F00BFAFF3008054
:102E28000000C0FFFFFFDF4158B2070002FCFFFFB0
:102E38000000F03F0000F07F0000E07F1B9BAE46E3
:102E4800059003EB0B021B9213F80B40A4F1300121
:102E58000929C5D801308B461B9C002940F0958272
:102E6800631C1B936478F1E70B9B1C1B0E9B1C4493
:102E7800002C3FF796AE3FF4A6AE644214F00F0262
:102E88000AD0A84B03EBC203DDE90601D3E900230E
:102E9800FDF744FCCDE9060124113FF494AE1F2C44
:102EA8003EDC14F01003DFF880824FF0000C18BFEE
:102EB8006A230A93DDE9062314F0010F1046194628
:102EC80007D0D8E90023FDF7FFFA4FF0010C0246BE
:102ED8000B46641008F10808EED1BCF1000F01D0D0
:102EE800CDE906230A9B93B1DDE90634C4F30A52FF
:102EF800C2F16B03002B0ADD1F2B40F30C8400206A
:102F0800342B069040F337844FF05C73079300220C
:102F18000023DDE90601FDF73FFD00283FF455AE2B
:102F28000022222393460592CAF8003065E7012360
:102F380000271193A8E67D4B204629460022FDF77D
:102F4800C3FA0F9B0F461190002B64D101F1004387
:102F580014901593DDE91445ECE641461A465046AF
:102F68005AF0E8FA804638B301461C9A50465AF09F
:102F780031FA08B30C9050461C995AF0F9F80C9B9A
:102F8800002C1C937FF797AE22461C9950465AF0A6
:102F980031FB1C9000287FF48EAE5E460EE0129A3C
:102FA800109ED51A5BE64946129A50465AF0C2FA64
:102FB800814600287FF483AE5E461C982223DFF802
:102FC80070B1CAF8003000230593014650465AF004
:102FD800CFF8494650465AF0CBF8414650465AF089
:102FE800C7F8139950465AF0C3F8314650465AF07C
:102FF800BFF802E749462A4650465AF0FBFA81468E
:1030080000287FF45FAED7E74A4FFF1A012303FA7F
:1030180007F7119338E6119A0B46CDE9142399E77F
:10302800069B002B61D10C9BC3F31303002B63D1C8
:103038000022414B20462946FDF7B8FC002840F005
:1030480037823A4B204629460022FDF73DFA01F126
:1030580000430F46119018901993DDE9184569E669
:1030680001230B9308F102031B9398F80240C6E46E
:103078004FF0000BCDF86C80F8E4A2F1547307937D
:10308800CDE90C45DDE90645204629465AF0EAFB1C
:1030980002460B46DDE90C01FDF716FA22462B46DF
:1030A800FDF75CF80B46254ACDE906012049194091
:1030B80091422ED90B9A224B9A4203D1059B013398
:1030C8003FF47AAF4FF0FF331D4ACDE9063276E67A
:1030D80001230993731C1B937478002C3FF4EBAC09
:1030E8001E464BE400230993F4E7069B012B03D10A
:1030F8000C9B002B00F03D8300230F4F0024114D43
:10310800119317E645EA00030A9A13433FF4D3AC38
:1031180066E403F15475079549E601F100431690FA
:1031280017932EE658B2070008B207000000E03FE8
:103138000000F07FE2FBFFFF0000F03FFFFF9F7CF5
:10314800FFFFEF7F0000F0BFB3F59A7F00F3F88030
:10315800102B4FEA231440F3AE82AF4B4FF0000C14
:1031680098460A93E146DDE9062314F0010F10465C
:1031780019464FEA640409F1010907D0D8E9002388
:10318800FDF7A2F94FF0010C02460B46012C08F19D
:103198000808EAD1BCF1000F01D0CDE906230A9B4B
:1031A8009E4C03EBC909079BA3F154730793DDE910
:1031B8000623D9E90001FDF787F9994B0A460B4028
:1031C800A342CDE9060100F2BB8096498B4240F24A
:1031D8000E824FF0FF33944ACDE9063200230A935A
:1031E800F3E492491BA859F02FFE00283FF463AC82
:1031F8001B9B1BA88E49013B1B9359F025FE10B958
:103208001B9B01331B930023DFF814B20593F4E5ED
:103218001633FFF629AE059BA3EB0B02854B03EB98
:10322800C203DDE90601D3E90023FDF777FA8B46EF
:103238000590E2E5119C3946C5F313062046FEF7D2
:10324800FFFFFDF713F90B46024639462046FCF707
:1032580083FF069C0F9F0D462743044657EA060343
:1032680046D167A3D3E90023FDF7A0FB00283FF46C
:10327800A6ADDDE906345E461C98A3460593A4E690
:1032880000230B93EEE605995A46304651F0FCF9B7
:103298008646002840F07A821B9A02EB0B031B93A8
:1032A80012F80B40302C40F0F480C3F1010298185A
:1032B80001331B931C78302CF9D0A4F13103082B6F
:1032C8000ED81B9E0027A4F1300B431C0125344661
:1032D800B946059307EB870700200BEB4707BFE5C7
:1032E80000234FF0010C1F461D469946059379E5CA
:1032F80045A3D3E90023FDF759FB0028B9D120469F
:10330800294643A3D3E90023FDF76EFB00283FF4C9
:1033180056ADAEE71E9B06931D9B03F233421F9BDF
:1033280023F4801343EA02530793210703D5079B2D
:1033380043F000430793DDE90634A34605935CE5B3
:1033480022230022DFF8D8B00592CAF8003054E5ED
:10335800099B1BA90295504601931CAB364A009362
:103368001DAB59F081FA10F0070504463FF442AD51
:10337800062D63D1089B0136002B3FF4ABAB00222E
:103388001E6093460592FFF79EBB059B01280344E8
:10339800059305F101031A4616D0284400F1FF3CB5
:1033A80004E047009C4503F101030CD02A4607EBD3
:1033B80087001D46082AF4D909EB8900102BD8BFCD
:1033C8004FEA4009EEE70232082D0DDC154681E789
:1033D8000B957546FFF7A2BB44F61F639A42A8BF38
:1033E8001A469346FFF73EBB102A15464FF00000D9
:1033F800DCBF09EB890901EB490931E5AFF300802E
:103408009535A094FFFFCF3F9535A094FFFFDF3F90
:1034180035E5AF350000E03F30B207000000A07C82
:103428000000F07F0000907CFFFFEF7FCCFA0700E0
:10343800D0FA070058B20700DCFA07001C9A3AB124
:1034480035211EA85AF026FB50461C9959F090FECB
:10345800013D042D3FF669AF01A353F825F000BFE5
:103468001D330000913400008B3400007D340000CF
:103478001D3300004FF0FF336FF00040CDE90630F8
:1034880053E7AB4B079350E71E9B06931F9B07938D
:103498004BE7704611E70E98A64901EBC001DDE93C
:1034A8000623D1E90001FDF70FF88B460590A4E447
:1034B8000F9BA14C11930023A04FCDE91834CCE504
:1034C800C3F10F0A9B4C04EBCA01DDE90623D1E9DD
:1034D8000001FCF7F9FF0E9BA3EB0A0A04EBCA04F0
:1034E800D4E90023FCF7F0FF8B46059085E40F999B
:1034F8005E46934AC3F31303DDF82CB0002900F0AD
:10350800938093423BD0002F00F0CF800C9B1F424A
:1035180020D00F9B59460598002B00F0D1805AF017
:10352800A1F90A9C02460B4674B10C9CC4F30A54D8
:10353800C4F16B04002C07DD824D002205EB045317
:10354800FCF7C2FF02460B4605985946FCF706FEF3
:103558008B4605900A9B002B47D0059859460022B8
:10356800794BFCF7B1FF02468B461C98134605922F
:103578000B437FF42AAD2223CAF8003025E50A9BC5
:103588000699002B00F0D080694B0C9A1340B3F1D8
:10359800D46F00F2C9801B0D4FF0FF32C3F16B03EB
:1035A80002FA03F39942AED1013104D1674B0C9A68
:1035B8009A423FF402AD5E4B0C9A1A4002F5801312
:1035C800079300230693DDE90634A3460593C1E774
:1035D80005985946FCF7C0FD002200238B4605904C
:1035E800FDF7DAF9002840F08E801C98EDE402F12E
:1035F8005473079300230A93FFF7E7BA1BA81EAA80
:10360800534959F03BFC05287FF44DAA1F9B43F012
:10361800FF4343F4E00307931E9B0693DDE906345A
:10362800A3460593FFF7E9BB069A13437FF46BAFF4
:103638000A9B002B40F090803D4B0C9A1A40134691
:10364800A3F580136FEA13536FEA035307934FF000
:10365800FF33B7E70F9B58465E46DDF82CB0DDE92F
:1036680006120B437FF476AFC2F313030C92002BC0
:103678007FF470AF22F000431B0D1B05B3F1D66F2A
:103688007FF668AF43691BB90369012B7FF762AF07
:1036980031460122504659F0ADFF414606465AF0E0
:1036A8001DF800287FF756AFC2E7119B069A134210
:1036B8003FF450AF2DE7274B4FF000090A936EE512
:1036C8005AF0D0F80A9C02460B46002C80D00C9C7D
:1036D800C4F30A54C4F16B04002C07DD194D0F9A8A
:1036E80005EB0453FCF7F0FE02460B4605985946D5
:1036F800FCF732FD002200238B460590FDF74CF9BC
:1037080000283FF42AAF22231C98CAF8003000236F
:103718009B46059359E44FF0FF3202FA03F3069AE9
:103728001A400692FFF7F3BB4FF0FF333AE700BFAA
:103738000000F07F58B207000000E0BF0000E03F43
:10374800FFFF0F000000F03F00005039FFFFEF7F40
:10375800F0FA070030B20700124B0C9A1A40B2F187
:10376800D66F13463FF76CAFB2F15C7F3FF7F5AE0B
:10377800C9E75E46C7E74FF0FF33C2F14B0203FAD1
:1037880002F202EA04030793FFF7C1BB4FF0000EF1
:10379800F146774670467546F446CDF814E0FFF7D3
:1037A80021BB00BF0000F07F2DE9F04F016C9BB0FA
:1037B80016461F468246279CCDE9026749B1426CEE
:1037C800012393404A608B6059F0D2FC0023CAF869
:1037D8004030B7F10008C0F2B48000232360784B72
:1037E80033EA080300F0B8800022DDE90234184605
:1037F80021460023CDE90601FDF7CEF8054670B154
:103808000123269A1360289B002B00F069826D4BD8
:103818005F1E289A136038461BB0BDE8F08F18ABBE
:103828005046019319AB0093DDE906235AF0A2F83C
:1038380083465FEA185440F0A080DDE918542C4410
:1038480004F23243202B40F35082C3F1400304F2C8
:10385800124008FA03F826FA00F048EA0000FCF7DC
:10386800B9FD013C0123A1F1F87110930022564BD8
:10387800FCF772FC4CA3D3E90023FCF725FE4CA30C
:10388800D3E90023FCF76AFC06460F462046FCF7FE
:10389800B1FD49A3D3E90023FCF716FE02460B4607
:1038A80030463946FCF75AFC06460F46FDF702FE3D
:1038B80000228146002330463946FDF777F8002874
:1038C80040F001822C1BB9F1160F04F1FF33059368
:1038D80000F2ED813D4B03EBC903DDE90601D3E9B5
:1038E8000023FDF763F8002876D0002309F1FF399B
:1038F8000D93631E002BC0F2E08100230993B9F1F8
:10390800000F6FDA099BCDF82890A3EB0903099300
:10391800C9F100034FF000090C93249B092B6BD8C5
:10392800052B40F3E781043B00242493249B023BAE
:10393800032B00F21B85DFE813F0A903A6039C0301
:103948007E03012328F0004823601D4BCDF80C802E
:1039580033EA08037FF448AF42F20F73C8F3130841
:10396800269A136058EA060315D1289B184F002B96
:103978003FF451AF07F108034BE7DDE90612109554
:10398800A4F2FF34C2F313030846189D43F07F5195
:1039980041F440116AE7289B0E4F002B3FF43BAFE0
:1039A800FB1C36E7AFF3008061436F63A787D23F04
:1039B800B3C8608B288AC63FFB799F501344D33F16
:1039C8000000F07F45FB07000000F83F58B20700F1
:1039D800FCFB0700F8FB0700631E002BC0F289847C
:1039E8000D900990059BCDF828904B440593002332
:1039F8000C93249B092B93D900230124CDE924336C
:103A08004FF0FF330B9408930021089BCAF8441029
:103A18001193504659F086FB0490002800F01B864D
:103A2800089B0E2B8CBF002404F00104049BCAF8E9
:103A38004030002C00F011810A99002940F36E8271
:103A4800AD4B01F00F02C8054FEA211603EBC20384
:103A5800D3E9004540F1E982A84B06F00F06032799
:103A6800D3E90823DDE90601FCF758FECDE90E018C
:103A780086B1DFF88882F10708D520462946013744
:103A8800D8E90023FCF720FD04460D46761008F11E
:103A98000808F0D122462B46DDE90E01FCF73EFE70
:103AA80004460D460D9B43B10022954B20462946FE
:103AB800FCF77CFF002840F01E843846FCF79AFC8F
:103AC80022462B46FCF700FD8E4B0022FCF746FBF6
:103AD800089B0646A1F15077002B00F0A5800A9BB1
:103AE8001693089B0E93049B2946204603F1010870
:103AF800CDE91467FDF7DEFC26462F460E9C00F143
:103B080030057D4BE9B203EBC403129153E902453A
:103B1800FCF770FC02460B4630463946FCF71CFBA6
:103B28000B9B06460F462246002B00F0B2822B461E
:103B380000207549FCF7F2FDDDE91423FCF70CFBC6
:103B4800049A129B04460D46137032463B46FCF716
:103B58004BFF002840F0CC840023CDF85C90CDF8D2
:103B680048B09946CDF850A02CE009F101090E9B08
:103B7800994580F2DF84204629460022634BFCF7F2
:103B8800A3FC0022614B04460D4630463946FCF73B
:103B98009BFC8B468246FDF78DFC0746FCF72AFC0A
:103BA80002460B46303750465946FCF7D5FA08F816
:103BB800017B22462B4606460F46FCF7F7FE0028F7
:103BC80040F0928432463B4600204D49FCF7C4FA47
:103BD80022462B46FCF7EAFE0028C6D0DDF848B09E
:103BE8000499DDF850A002E0884500F0548442466C
:103BF80018F8013D392BF7D001330491DBB288F86E
:103C08000030169E049F01360492FDE03846FCF70A
:103C1800F1FB22462B46FCF757FC0022394BFCF7F8
:103C28009DFA0646A1F15077204629460022384BD6
:103C3800FCF792FA32463B4604460D46FCF7D4FEA2
:103C4800002840F04883324607F1004320462946C1
:103C5800FCF7ACFE002840F00B83199B002B03DB1C
:103C68000A9A0E2A40F387810B9A002A54D0249A84
:103C7800012A40F36583089B5A1E0C9B934280F2ED
:103C88000B830C9B00250C92D31A9944089B002B9C
:103C9800C0F2FD83059A1A440592099A16461A44F9
:103CA80009920121504659F067FB044637E0012389
:103CB8000D93631E002BBFF620AEC4F101030993D8
:103CC800002305931BE64846FCF794FB32463B4627
:103CD800FCF762FE00287FF4F5AD09F1FF39F1E544
:103CE8000C4F38461BB0BDE8F08FC3F1200306FA2D
:103CF80003F0B4E5012419E658B2070030B2070012
:103D08000000F03F00001C400000E03F000024409D
:103D18000000144044FB07000C9D099E0B9C002EDC
:103D28000CDD059900290B4608DDB142099AA8BFA8
:103D38003346D21AF61ACB1A099205930C9B53B143
:103D48000B9B002B00F00B83002D00F394820C9B3F
:103D58005A1B40F0A3820121504659F00DFBB9F1DE
:103D6800000F054600F32981249B012B40F3B682FE
:103D78000027B9F1000F40F02B81012305990B446E
:103D880013F01F0352D0C3F12002042A40F35284D7
:103D9800C3F11C03099A19441A441E440992059157
:103DA800099B002B05DD59461A46504659F022FC5E
:103DB8008346059B002B05DD29461A46504659F0D7
:103DC80019FC0546249B022B0D9BD4BF4FF000091C
:103DD8004FF00109002B40F00481089B002B2EDCDA
:103DE800B9F1000F2BD0089B002B00F0AC81259B6C
:103DF800049FDE4329465046013659F0B9F91CB1F3
:103E08002146504659F0B4F95946504659F0B0F990
:103E18000023049A1370269B1E60289B002B3FF4F6
:103E2800FAAC38461A601BB0BDE8F08F1C23099A1B
:103E38001E441A440992059A1A440592B0E70B9B4E
:103E4800002B00F09681002E00F32E82002F40F008
:103E58005A83A146029BDDF8108003F00103089AFB
:103E6800069308F1FF331A4409922946584658F038
:103E780039FA21460590584659F030FC294606463D
:103E88004A46504659F04AFC059B074601463033DE
:103E98000293C368002B40F00E82584659F01EFC6E
:103EA80039460890504659F063F9249B089A0699B8
:103EB80013430B4300F0868308F10103002E1F46CD
:103EC800C0F2F48224990E430699314300F0EE8241
:103ED800002A00F35D83029B88F80030099B434564
:103EE80000F05C83594600230A22504659F04AF9EB
:103EF8004C45834621464FF000034FF00A025046D6
:103F080000F0DE8159F03EF94946044600230A22B2
:103F1800504659F037F9B8468146A6E700F08A813D
:103F28000A9B5D42AD4B05F00F0203EBC203DDE9CE
:103F38000601D3E90023FCF7C7FA2D11CDE90E01DC
:103F480000F06A83A64E00230227EA0705D5013749
:103F5800D6E90023FCF7B8FA23466D1006F10806E7
:103F6800F3D104460D46002B7FF49CADDDE90E34F9
:103F780025461C4696E5994B03EBC203D3E900019D
:103F8800259B002BCDE9020180F21082089D002DAF
:103F980000F30C82002D40F06B810022914BFCF75E
:103FA80093FA02460B46DDE90601FCF709FD0028F5
:103FB80000F09281089D2C4619E701464A46504672
:103FC80059F0B8FA249B0546012B40F339810027A4
:103FD8002B6905EB8303186959F07EF9C0F12003BA
:103FE800CCE62946584659F079FB0028BFF6F5AECD
:103FF800119B59460A225046002BCCBF4FF00009AE
:1040080009F00109002359F0BDF80A9B834603F122
:10401800FF380B9B002B40F0EC82B9F1000F40F009
:10402800E282119B0A9E0893A5E0DDE90623022798
:10403800CDE90E231CE501230B93259B0A9A134413
:1040480011930133012B18460893B8BF01200021B2
:104058001728CAF844107FF7DCAC012204235B0060
:104068001146013203F114058542F8D9CAF8441003
:10407800CFE401230B93259B002B40F3278118469F
:1040880011930893E3E700230B93D6E700230B93E0
:10409800F1E72B46DDE91401FCF716FA129B049AA6
:1040A80013700E9B012BCDE9120100F0B2820E9B1A
:1040B800049ACDF838A0CA461344994614930022AE
:1040C800494B30463946FCF7FFF90D460446FDF7E3
:1040D800F1F90746FCF78EF902460B4630372046C1
:1040E8002946FCF739F808F8017BC84506460F460B
:1040F800E5D1D146DDF838A000223C4BDDE9124578
:1041080020462946FCF72AF802460B46304639462F
:10411800FCF76AFC002840F0F18122462B4600207B
:104128003249FCF719F802460B4630463946FCF787
:104138003DFC00283FF491AD149B1A4613F8011D6D
:104148003029FAD05DE529460522504659F01AF87B
:1041580005465846294659F0C1FA00287FF747AE68
:10416800049831230A9E074600F8013B0136049063
:1041780040E60A9E0136DDF810900127DDF8208020
:1041880007E0594600230A22504658F0FBFF013742
:1041980083462946584658F0A5F8474500F13000AF
:1041A80009F8010BEDDB089B0290002BCCBF1F46E2
:1041B8000127049B1F4400230593594601225046BA
:1041C80059F018FA2946834659F088FA002840F32E
:1041D800538117F8012C013F04990EE058B20700EB
:1041E80030B2070000001440000024400000E03F07
:1041F800B94200F0398117F8012D392A07F1010376
:10420800F6D001323A7029465046029358F0B0FF72
:10421800029B002C00F02D81059A002A00F01082E4
:10422800A24200F00D8211465046049F049358F0B4
:104238009FFFE5E5DDE90634022725461C4631E403
:10424800029B002B7FF4C3AEDDE90212C2F3130315
:10425800002B7FF4BCAEBB4F1740002F3FF489AD55
:10426800099B012701330993059B0133059380E5D9
:1042780000252C46BBE521462A46504659F05AF9F6
:1042880004465A465046214659F0A4F859468346F2
:10429800504658F06DFF5AE59D1AF7E459465046C6
:1042A80059F048F9834656E521463246504659F0BA
:1042B800A1F90446CAE5504658F05AFF0122FBE529
:1042C80058F060FFB84604468146CEE501232593A1
:1042D8000893FFF799BB00252C4641E7DDE9021258
:1042E80000297FF445ADC2F31303002BB3D0029F1E
:1042F8003FE50D90E1E4089B002B3FF487AC119B50
:10430800002B7FF7AAAC0A9A204629460E93013A59
:104318008D4B16920022FCF7D7F802460D46781C02
:104328001446FCF767F82B462246FCF7CDF8002226
:10433800864BFBF713FF0646A1F15077FFF7D3BB77
:10434800109A002A00F0AE8003F23343059A0C9DC0
:104358001A440592099A16461A440992A1E4594644
:104368000C9A504659F0E6F88346F4E4002150468A
:10437800CAF8441058F0D6FE0490002800F06B816B
:104388000A9A049B0E2ACAF84030199B00F36A81E6
:10439800002BC0F267810A9A6D4B03EBC2034FF002
:1043A800FF32D3E900340892CDE90234DDE906454D
:1043B800DDE9022320462946FCF7B0F9DDF8108034
:1043C800FDF778F80746FCF715F8DDE90223FCF756
:1043D8007BF80B46024629462046FBF7BDFE07F14F
:1043E800300308F8013B089B012B00F0B780DDF88B
:1043F80020900126CDF814B0CDF820A0DDE902AB5D
:104408001CE052465B4620462946FCF787F90136F0
:10441800FDF750F80746FBF7EDFF52465B46FCF701
:1044280053F80B46024629462046FBF795FE07F14E
:1044380030034E4508F8013B00F08C800022424BC7
:10444800FCF742F80022002304460D46FCF7A4FAC4
:104458000028D6D00A9E049FDDF814B00136DDF896
:1044680020A0CDF81080CFE43122049901360A70DB
:10447800C9E6049F0493C7E403D1029BD8073FF51C
:10448800A8AE3B4617F8012D302AFAD0BBE6DDE985
:1044980008239E1A05E4169B0491013316933123D1
:1044A800FFF7ADBB189BC3F136034FE7002A13DDB6
:1044B800594601225046089359F09CF829468346EC
:1044C80059F00CF90028089B40F3AD80029A392A6C
:1044D8006BD0059A31320292029A0A9E05944C4694
:1044E800013688F800208EE6DDF848B0DDF850A0E7
:1044F800169E049F0136CDF8108085E4DDF85080C3
:104508000499FFF774BB6168504658F00BFE0646E5
:10451800002800F09980236904F10C010C30023363
:104528009A00FCF75DFE31460122504659F062F8C8
:1045380081468FE4DDF85C90DDF848B0DDF850A0E6
:10454800FFF78BBB0000F07F0000244000001C40F8
:1045580058B20700DDF814B0DDF820A00A9B024627
:104568005E1C0B46FBF7FAFD04460D46DDE9022307
:10457800FCF73AFA08BB20462946DDE90223FCF796
:104588000BFA08B1FF0718D4049FCDF810803BE45C
:10459800029A392A09D0029A01329EE70A9E0594A6
:1045A8004C46013609E608F101070A9E39220594AE
:1045B8004C46013688F800200DE60A9B04991693AC
:1045C800FFF715BB029B392BEDD0002E02DD059BB2
:1045D800313302934346029A0A9E05944C460136AB
:1045E80003F8012B0FE6119BCDF828800893FFF7FD
:1045F800FABB214600230A22504658F0C3FD119BFE
:104608000446CDF828800893B9F1000F7FF4EBAB8E
:1046180019E4CDF850806FE5DDE90E340227254610
:104628001C46FFF73FBA7FF457AF029AD6077FF5CB
:1046380053AF4BE73FF4B4ABC3F13C03FFF7F7BB11
:10464800049F0493FFF7DCBB02460B4B40F2EA21C0
:104658000A484DF0E5F8084B00224FF4D571074899
:104668004DF0DEF80022012125924FF0FF320B9128
:1046780011920892FFF7FBBA08FC07001CFC070020
:1046880000220023C0E90023C0E9022300292BD11E
:1046980029A3D3E90023C0E9042329A3D3E90023EC
:1046A800C0E9062328A3D3E90023C0E9082328A3E7
:1046B800D3E90023C0E90A2327A3D3E90023C0E9EB
:1046C8000C2327A3D3E90023C0E90E2326A3D3E9AB
:1046D8000023C0E9102326A3D3E90023C0E912234D
:1046E800C0F8D0100020704723A3D3E90023C0E905
:1046F800042323A3D3E90023C0E9062322A3D3E993
:104708000023C0E9082322A3D3E90023C0E90A2330
:1047180021A3D3E90023C0E90C2321A3D3E9002373
:10472800C0E90E2320A3D3E90023C0E9102320A366
:10473800D3E90023D2E700BF08C9BCF367E6096ADA
:104748003BA7CA8485AE67BB2BF894FE72F36E3C18
:10475800F1361D5F3AF54FA5D182E6AD7F520E5175
:104768001F6C3E2B8C68059B6BBD41FBABD9831F2F
:1047780079217E1319CDE05BD89E05C15D9DBBCB29
:1047880007D57C362A299A6217DD70305A0159916B
:1047980039590EF7D8EC2F15310BC0FF6726336750
:1047A80011155868874AB48EA78FF9640D2E0CDB53
:1047B800A44FFABE1D48B54708B5002101204AF0AC
:1047C80065F9054B05491A68054B0648B2FBF3F233
:1047D800BDE8084060F052BC3C1F00206A15080084
:1047E80040420F008315080030B51168ADF5017D12
:1047F800104814464EF028FD40206AF019FB0021AD
:104808000D4D4FF4FE7201A800914EF0A1FC2E212F
:1048180028464EF019FD694660680CF071FF312199
:1048280028464EF011FD68460DF04AF80DF5017D59
:1048380030BD00BFAB150800B515080038B50D46EA
:104848001446116804484EF0FFFC21462846BDE88E
:1048580038400DF0B5B800BFAB15080070B501259C
:1048680086B00646039506222946284611F026FEFC
:10487800041E10DA204C422320682049204AC068D0
:104888004DF0AAFB23681F49D8684DF0A5FB2C46BC
:10489800204606B070BD002376BA0593ADF81050D7
:1048A800ADF81260042302220093294603AB63F09B
:1048B80044F80822204604A962F0D5FD00280ADA47
:1048C8000D4C502320680D490D4AC0684DF084FBFB
:1048D80023680D49D8E70221204662F01EFE002811
:1048E800D6DA054C572320680449054AC0684DF0BC
:1048F80073FB23680549C7E7D01F0020831608000B
:104908004D16080097160800B9160800C7160800C3
:1049180037B50D4611220221012011F0CFFD041EEA
:1049280010DA114C6C232068104A1149C0684DF008
:1049380053FB23680F49D8684DF04EFB01242046ED
:1049480003B030BD082168464CF094FF0123ADF850
:10495800003000236DBA0193ADF802500822694671
:10496800204662F080FDEAE7D01F00204D160800BF
:1049780083160800D7160800F8B50E4614468AB103
:1049880009484EF061FC0025084FA54204DB0848A1
:104998004EF05AFC2046F8BD715D38464EF054FC86
:1049A8000135F2E70124F5E7F5160800D69009006D
:1049B8000D1708000823024604480168914204D0F4
:1049C800013B00F19800F8D118467047502D00209F
:1049D800002382B00193094B019A072A01DD0020C8
:1049E80004E01A68824203D103F11C0002B0704748
:1049F800019A983301320192EEE700BF502D002052
:104A08000023074A52F83310814203D102EBC30353
:104A18005868704701330F2BF4D14FF0FF307047BF
:104A280074B607002DE9F04F304E9B46304B356881
:104A38001B8801359B070C46924687B0356005D523
:104A48002C4B2D491B6898684DF0C6FAA36A0BB920
:104A58006423A3620021E06AFCF7C2FA10B14FF0A8
:104A68007E53E362D4F82C804FF07E504146FCF729
:104A7800D7F9236B074605900BB91E2323634046DD
:104A8800FBF7CAFC236B8046039333683846894694
:104A98000293FBF7C1FC4B46CDE90001424617489B
:104AA8004EF0D2FB636B23B1012B0CD00222144BC6
:104AB80006E03268204605A903F020FE0422104BC8
:104AC800C3E9002502E00F484EF0BEFB5B464FF4F9
:104AD80002710B4A022060F044F94FF4037300207E
:104AE800CAF8003007B0BDE8F08F00BF144E0020B0
:104AF800D0250020D01F00202417080041170800E7
:104B0800482B0020731708002DE9F0470D461F4673
:104B18000423DFF888800C460146214855F801999E
:104B28001646C8F800304EF08FFBDFF878A007343F
:104B380015F8011F50464EF087FBA542F8D14946AB
:104B480019484EF081FB19490B684B4520D1184A8A
:104B580013684B451CD100231360164A48460B6066
:104B68001360FFF727FF10B90223C8F80030D0E917
:104B78001C23C8E902233B464FF40271074A03206D
:104B880060F0EFF84FF4037300203360BDE8F0875E
:104B98004946024803F060FEEDE700BF482B0020BD
:104BA8008D170800BA170800BF1708002C4E002000
:104BB800284E0020244E00202DE9F84F254F1D4691
:104BC8003B688346082B894614460BD100233B607B
:104BD80021484EF039FB4FF4986200211F484EF0EF
:104BE800B7FA01E0002BF3D01D4B1B889B0705D5B6
:104BF8001C4B1D491B6898684DF0EEF998223E68D9
:104C0800002102FB06F8731C3B60144F08EB070AEF
:104C180050464EF09DFA08F11C005A464946384461
:104C2800FCF7DEFA0420114B114A196801311960AA
:104C380048F807102B46CAF80860C2E900014FF48B
:104C4800027160F08EF84FF4037301202360BDE811
:104C5800F88F00BF104E0020D4170800502D0020F8
:104C6800D0250020D01F0020EC170800144E00208B
:104C7800482B00202DE9F04F98460423051E85B0E7
:104C8800B8BF03350393AB100193384B89461B8893
:104C980092469B0705D5364B36491B6898684DF0F8
:104CA8009BF90027344E019B9F4210DB4FF4F972A9
:104CB800324933484EF0C8FA43460421062003AA75
:104CC80060F04FF808230020CAF8003007E059F8D0
:104CD80027502846FFF76EFE044618B9022005B093
:104CE800BDE8F08FC26C3AB141F287318A42D6BF33
:104CF800244B002293FBF2F22261226A022AEDD1B0
:104D08002822002104F170004EF022FA0122A2614B
:104D1800E269032A24DC002A20DD4FF0480B3068C2
:104D2800194B0BFB00F0194C1D6025502030204416
:104D380063F055FA30680BFB0040103063F038FA26
:104D480030680BFB0040203013F084FF2A4631689E
:104D58000F484EF079FA3368013333600137A2E720
:104D6800043A012AFAD80B4A1560D6E7D025002064
:104D7800D01F002003180800484E0020CA1D080054
:104D88004218080040420F00244E00204C4E0020DC
:104D9800191808002C4E00202DE9F04F98460423DE
:104DA8000646ADF2246D0593594B00281B88B8BF01
:104DB800C61C0391990717464FEAA60606D5554B18
:104DC80002461B68544998684DF006F9534D2C6803
:104DD8001CBB4FF48062214688A84EF0B9F93146D1
:104DE8004F484EF031FAA1462546DFF828B1B145C3
:104DF80017DB00234B48AB614EF026FA04EB841115
:104E0800C9004346072089B288AA5FF0AAFF4FF479
:104E180002735E4304363E602CE0012063F084FA9E
:104E2800D5E7039B404853F829A051464EF00CFAA9
:104E38005046FFF7BFFD054678B9022304210593C4
:104E48000720434605AA5FF08CFF082337483B60DC
:104E58004EF0FAF909F10109C9E7036A022B0ED0ED
:104E68000223042105930720434605AA5FF079FF32
:104E780008233B6000200DF2246DBDE8F08FC36964
:104E8800032B3DDC002B10DD0021294B1960294B39
:104E9800A96853F82100421C07D00DF013FA4FF00F
:104EA800FF30A968234B43F821000423CDE9063AD3
:104EB800174B1B889B070BD5D5E92023CDE9002389
:104EC800DBF8000052466B6F1B4980684DF084F890
:104ED80005F170030DF1200C05F1980E6246186873
:104EE8005968083303C273459446F7D14FF40272E8
:104EF80088AB02FB093006A9FCF772F90134A9E76F
:104F0800043B012BD1D800210C4B1960BCE700BF32
:104F1800D0250020D01F002073180800384E00202C
:104F280097180800FD180800B6180800CA180800E5
:104F3800244E002060140020DE1808002C4E0020AB
:104F48002DE9F04F0028B8BF0330ADF2244D9A4642
:104F5800831003936D4B91461B8804919B0706D5DC
:104F68006B4B039A1B686B4998684DF035F84FF006
:104F7800000B694EDFF8A481039B9B4525DA049B4F
:104F880040F2A12253F82B7031463B4664484EF05C
:104F98005BF93846FFF70EFD044640F2A32231467E
:104FA80040464EF051F9ACB940F2A6225A495B4846
:104FB8004EF04AF90223042186930520534686AA17
:104FC8005FF0CFFE0823C9F8003000200DF2244D11
:104FD800BDE8F08F40F2AD22314640464EF034F93C
:104FE80040F2B922314640464EF02EF9236A012B91
:104FF80002D04FF42F72D9E740F2C722314640461B
:1050080004F1700505934EF01FF928220021284667
:105018004EF09EF840F2CB22314640464EF014F94D
:10502800059BA361E369013B052B36D8DFE803F054
:105038000303090307383B4B1F603B4B1F603B4B87
:105048001F604FF43672314640464EF0FDF8364B3D
:10505800374D1F6048232868364C58432750203066
:10506800204463F0BCF84823286803FB0040103054
:1050780063F09EF84823286803FB0040203013F0B3
:10508800E9FD2B684FF439720133314640462B60F5
:105098004EF0DAF80023C9F800300BF1010B6BE78A
:1050A800142125484EF0D0F804F164030193142329
:1050B8004FF4007200930021204B06A84EF006FF23
:1050C80006A852F0E7FF10B11D484EF0BDF80423C2
:1050D800CDE986370A2342F2107223670023C4E918
:1050E8001E2388AA05F1280413462868696808352C
:1050F80003C3A5421A46F7D153464FF4027105205F
:1051080086AA5FF02EFE4FF40373C4E7D025002073
:10511800D01F002026190800BB1D080059190800D7
:105128004F1908002C4E0020284E0020204E002049
:10513800484E00204C4E0020601908007D190800D8
:10514800971908002DE9F0411A4C154620681E46AB
:10515800421C04D00DF0B6F84FF0FF33236008244A
:105168004FF0FF38144F57F8040B431C03D00DF0D1
:10517800A9F847F8048C013CF5D104210F4B104ADB
:105188001C60104B08201C600F4B1C600F4B1C60F0
:105198000F4B1C600F4B1C700F4B1C600F4BC3E96F
:1051A8000044334611605FF0DCFD082320462B6085
:1051B800BDE8F081C002002060140020244E0020C9
:1051C800482B0020284E00202C4E0020344E002072
:1051D800484E002004770020104E0020502D00205B
:1051E80010B5144600220228226013D020F00200D5
:1051F800012825D1312900DCC9B9194A2260A1B199
:10520800322291FBF2F21A6021681648BDE810407C
:105218004EF01AB8A1F13202B2F5E17F104A2260CD
:1052280036BF322219601A6010BDC822EBE74A1E49
:10523800312AF9D80C4A186092FBF1F12160F3E7A2
:105248000A4C40F29B33206809490A4AC0684CF06E
:10525800C3FE23680849D868BDE810404CF0BCBEBE
:10526800A0860100AA19080040420F00D01F0020A4
:1052780083160800CE190800021A080010B5044663
:1052880088B0002104A863F03DF80698114B20442B
:10529800984212DC06900F4C0021684663F032F801
:1052A800049B029A63439B1A069A1344009A04FBD0
:1052B8001233002BF0DC08B010BD049B059A0133B3
:1052C800A0F57420A0F5107042F10002CDE9043277
:1052D8000690E0E740420F002DE9F04F0C46002110
:1052E800ADF51B7D039010A8CDE9041102939046FB
:1052F80063F008F8A24B1B88990706D5A14B2246F4
:105308001B68A14998684CF067FE2046FFF752FBDE
:105318000446002800F02E81D0F854A001270AF195
:1053280001004DF03DFB05460026524600214DF098
:105338000FFF1422954928464FF0E2F904F12401A1
:10534800384607AACDE90666ADF818705FF0E8FCA4
:10535800A38E216D5BBAADF81A30002900F0FF80EA
:105368008B484DF071FFE16CE06905AB04AAFFF7CB
:1053780037FF884B04991A68DFF81C928A1AB242E0
:10538800D8BF0A4685484DF05FFFC9F80070771C02
:10539800384605F108015FF030FD012F0BD10021DF
:1053A80008A862F0AFFF049A0A9B13447C4A934210
:1053B80000F382800A93059B43B397FBF3F203FB48
:1053C800127BBBF1000F21D159460CA862F09AFF5D
:1053D80008A90CA80BF05CFC6E4A126882420ADA33
:1053E800801A62F0B6FF59460CA862F08BFF08A934
:1053F8000CA80BF04DFC002801DDFFF73FFF049AD5
:105408000A9B1344664A934263DC0A93002114A85A
:1054180062F078FF149805F10C015FF0EEFC169825
:1054280005F110015FF0E9FC52462946039806ABE6
:105438005FF062FC421C59D0D4E91E321B1842EBC3
:10544800E070C4E91E30236F01332367D9F80030B8
:10545800002B2FD1534A284613604DF0A9FA042394
:105468001893234653F8702B1AAD199204F1980635
:105478002A4618685968083303C2B3421546F7D15B
:105488003F4B1B889B070BD53E4B47491868D4E90F
:105498001E23CDE90023236F226880684CF09CFD11
:1054A80043464FF40271052018AA5FF05AFC4FF4E6
:1054B80003735DE03E466AE7A3F57423A3F5107312
:1054C8000A93DDE90832013342F10002CDE90832DE
:1054D80071E7A3F57423A3F510730A93DDE9083285
:1054E800013342F10002CDE908328FE762F05EFE37
:1054F8000368682B2FD015DC0B2B15D0202B2AD056
:10550800204E2A4813F0F2FA306840F26743284ADE
:105518002849C0684CF060FD33682749D8684CF0CA
:105528005BFD93E7692BEBD1164F214A386840F2AF
:105538005A432049C0684CF04FFD3B681F49D86862
:105548004CF04AFD4FF47A7062F003FF236F374640
:10555800013B23677AE70023C9F8003076E7022386
:10556800042118930520434618AA5FF0FAFB082384
:10557800029A136001200DF51B7DBDE8F08F00BF76
:10558800D0250020D01F0020151A08002F1A080067
:10559800371A0800084E0020344E0020441A08002C
:1055A80040420F00284E00208D1A0800711A08008A
:1055B800CE190800831608007A1A0800651A080030
:1055C8002DE9F0411746421C06460C461D46ADF52E
:1055D800027D2ED10023514A51481360514A13606D
:1055E800514A13604DF030FE2046FFF7E3F920B929
:1055F80001200DF5027DBDE8F081042300F1700261
:10560800CDE9003402AD00F198032C4610685168CA
:10561800083203C49A422546F7D16A46889B4FF45C
:10562800027105205FF09DFB4FF40372899B1A609D
:10563800DEE70846FFF7BEF904460028D8D005B9CA
:10564800456D0023012004F13808414601AACDE93F
:105658000033ADF800005FF063FBB4F848305BBA84
:10566800ADF802302F4B1B6853B32C4B1B683BB370
:105678004146BDF8000001AA5FF052FBB4F848307B
:105688005BBAADF80230206F07F108015FF0B5FB97
:105698006B462A46394630465FF02EFB431C20D025
:1056A800236F01332367D4E91E321B1842EBE070E5
:1056B800C4E91E301D4A002013680133136098E7BF
:1056C800194B1B68002BDED0144B1B68002BDAD05B
:1056D800BDF8000001AA04F124015FF021FBA38EAC
:1056E800CEE762F063FD03680B2B01D0692BE1D193
:1056F8000F4D104A286840F2EC430F49C0684CF03F
:105708006BFC2B680D49D8684CF066FC4FF47A7036
:1057180062F01FFE236F013B2367CBE72C4E00206E
:10572800AC1A0800244E0020284E00200C4E002001
:10573800D01F0020CE19080083160800651A08003B
:10574800F7B5064608461546FFF734F9044600281B
:105758005CD040F2BE52002128464DF0F9FC0023EF
:10576800012004F12407394601AACDE90033ADF838
:1057780000005FF0D5FAA38E5BBAADF80230254B76
:105788001B689BB3244B1B6883B3BDF8000001AAB8
:1057980004F138015FF0C4FAB4F848305BBAADF8E8
:1057A800023030466A4629465FF0AFFA431C064687
:1057B80019D0636F083501336367D4E920321B18A9
:1057C80042F10002C4E9203228465FF021FBE36879
:1057D8000138C01AD4F88C301844C4F88C00284614
:1057E8005FF016FBE060304603B0F0BD0B4B1B6862
:1057F800002BD6D0084B1B68002BD2D03946BDF8F9
:10580800000001AA5FF08CFAA38EC7E74FF0FF36BD
:10581800E9E700BF244E00202C4E0020284E00202F
:105828002DE9F04FADF5297D10900846CDE91123FB
:10583800FFF7CEF8054608460C46FFF7BBF8964E2C
:10584800074633889B0740F1CF81944B94491B68E6
:1058580098684CF0C1FB109B002B10DA33889D0729
:1058680023D4022326AA26930421119B05205FF046
:1058780078FA0823129A4FF0010A136007E1002C06
:10588800ECDB119B002BE9D0129B002BE6D005B175
:10589800C7B933889807E4D5804B2A4618683B4631
:1058A800804980684CF098FBDBE77C4B109A1868BD
:1058B800129B7D490193119B0093806823464CF00D
:1058C8008BFBCEE72A6B0AB16B6B3BB93388990720
:1058D800C7D5724B754918686B6BE2E740F6AC5355
:1058E8009A4203DCAB6BB3F57A7F08DD33889B07FC
:1058F80005D56A4B6E491B6898684CF06DFBAB6B1D
:105908002A6B13935A43D200B2F1C87F09DD33885A
:105918009C07A6D5614B67491B6898684CF05CFBEF
:105928009FE7139B1C1D20464DF03AF8814648B965
:105938003388980795D5594B5F491B6898684CF090
:105948004BFB8EE722460124002600214DF000FC87
:1059580014225A4948464EF0D3FE204619AA05F1AA
:105968000801CDE91866ADF860405FF0D9F92B8BD6
:10597800B0465BBAADF862302B6BB346642BACBF54
:105988002346022317934E4B0D961C6034461596FA
:105998000F96149600211AA862F0B4FC01234FF068
:1059A800000A0E932B6B534580F292800F9B0021C7
:1059B80001331EA80F9362F0A5FC1EA91AA80BF0CC
:1059C80067F9404B984240F2DA80149BA0F57420A6
:1059D80001331493A0F510700D9B10EB080843F1E8
:1059E80000034FF47A700D9362F0B3FC01344BF16D
:1059F800000B334BD3F800A0BAF1000FCAD14846C8
:105A08004CF0D6FF042326933B4653F8702B0DF138
:105A1800A00C279207F1980E624618685968083357
:105A280003C273459446F7D1119B26AA4FF402711D
:105A380005205FF096F94FF40373129A1360164B22
:105A48001B889B0720D5154B4FF47A72D3F800902A
:105A58000E9B40460A930F9B0D9909932B6B089355
:105A6800159B0793149B06930023FBF761FBCDE975
:105A7800024BCDE90401BB6F324600933B6F1249DC
:105A8800D9F808004CF0A8FA104862F062FC5046B9
:105A98000DF5297DBDE8F08FD0250020D01F00200E
:105AA800C01A08003E1B0800DD1A0800851B080004
:105AB800C11B0800301C0800781C08002F1A0800B9
:105AC800344E00203F420F00FC1C080040420F00EB
